:0300000002071ADA
:0C071A00787FE4F6D8FD7581430207618A
:0800030012096312002E80FBBC
:100963001209BC1209C61209E112000E1209E8129B
:0B09730008DD12090143CF10D2AF22B3
:10002E0043CF107F01120924EF600302010C7F02FF
:10003E00120924EF600302010C120998EF700302FB
:10004E0004A7E52DFEE52E8E36F5377E007F077D63
:10005E00007B007A00792B1205B3E536707BE5370D
:10006E002456606E24A9B40C00506E90008775F073
:10007E0003A4C58325F0C583730200AB0200AE0254
:10008E0000B10200B40200B70200BA0200BD0200C5
:10009E00C80200D60200E70200E70200D902019B67
:1000AE0002018F0201B30201A70201BF0201CB12AE
:1000BE0009CFEF6401700E0201DF1209CFEF640168
:1000CE0070030201F602046302046CD2977F1002E1
:1000DE00045EC2977F2002045E1209A6E4FDFF12A1
:1000EE00066DE4FD7F0112066DE4FD7F0212066DC2
:1000FE001209CFEF640160030204A70203617F01BE
:10010E00120924EF70030202377F02120924EF70E6
:10011E0003020237120998EF70030204A7E52DFEC1
:10012E00E52E8E36F5377E007F077D007B007A0048
:10013E00792B1205B3E5366003020212E537245619
:10014E00700302020D24A9B40C00400302021290A7
:10015E00016B75F003A4C58325F0C5837302018F6F
:10016E0002019B0201A70201B30201BF0201CB02F1
:10017E0001D70201EE02020502021202021202026F
:10018E00087D02E4FF12066D7F0202045E7D01E42B
:10019E00FF12066D7F0102045E7D027F0112066D65
:1001AE007F0402045E7D017F0112066D7F0302044F
:1001BE005E7D017F0212066D7F0502045E7D027F69
:1001CE000212066D7F0602045E1209CFEF64017003
:1001DE000C7D017F0312066D7F0702045E0204632D
:1001EE001209CFEF6401700C7D027F0312066D7F42
:1001FE000802045E02046302046CD2970204A7C2D2
:10020E00970204A71209A6E4FDFF12066DE4FD7F16
:10021E000112066DE4FD7F0212066D1209CFEF6426
:10022E000160030204A70203617F01120924EF6437
:10023E000160030203717F02120924EF60030203BF
:10024E0071120998EF70030204A7E52DFEE52E8EBC
:10025E0036F5377E007F077D007B007A00792B1202
:10026E0005B3E536600302033FE5372456700302FB
:10027E00033A24A9B40C00400302033F9002987580
:10028E00F003A4C58325F0C583730202BC0202C825
:10029E000202D40202E00202EC0202F8020304029D
:1002AE00031B02033202033F02033F0203357D02AA
:1002BE00E4FF12066D7F0202045E7D01E4FF12066A
:1002CE006D7F0102045E7D017F0112066D7F0302C8
:1002DE00045E7D027F0112066D7F0402045E7D01C5
:1002EE007F0212066D7F0502045E7D027F021206FA
:1002FE006D7F0602045E1209CFEF6401700C7D0162
:10030E007F0312066D7F0702045E0204631209CF9B
:10031E00EF6401700C7D027F0312066D7F080204EC
:10032E005E02046302046CD2970204A7C297020411
:10033E00A71209A6E4FDFF12066DE4FD7F01120669
:10034E006DE4FD7F0212066D1209CFEF64016003AA
:10035E000204A7FD7F0312066DE4F538F53AF53B6E
:10036E000204A77F01120924EF60030204A77F0293
:10037E00120924EF640160030204A7120998EF70BA
:10038E00030204A7E52DFEE52E8E36F5377E007F9F
:10039E00077D007B007A00792B1205B3E5366003EA
:1003AE00020479E5372456700302047524A9B40CAF
:1003BE000040030204799003D275F003A4C583258F
:1003CE00F0C583730203F602040102040C02041743
:1003DE0002042202042D02043802044D02046C02AF
:1003EE0004790204790204717D01E4FF12066D7F27
:1003FE0001805D7D02E4FF12066D7F0280527D0258
:10040E007F0112066D7F0480477D017F0112066D0C
:10041E007F03803C7D017F0212066D7F0580317D5A
:10042E00027F0212066D7F0680261209CFEF64014D
:10043E00700B7D017F0312066D7F078013801612ED
:10044E0009CFEF6401700E7D027F0312066D7F08E7
:10045E001209B28044E4FD7F0312066D803B120741
:10046E00A68036D2978032C297802E1209A6E4FD5E
:10047E00FF12066DE4FD7F0112066DE4FD7F021290
:10048E00066D1209CFEF6401700FFD7F0312066D2A
:10049E00E4F538F53AF53BF5391209CFEF705DE525
:1004AE00387018753801FB7A0079187FA07E0FFD21
:1004BE00FC120947E4FD7F0312066D7B007A00797A
:1004CE0018120886EC4D4E4F603B7D027F031206DC
:1004DE006DE5397011753901FB7A0079207FB07E98
:1004EE0036FDFC1209477B007A007920120886EC53
:1004FE004D4E4F6010E4FD7F0302066DE4F538F5B6
:06050E003AF53BF539222D
:0909C60043918053927FC29722F5
:1008DD00758E07438901758A7C758CFCC28CD2A9F3
:1008ED00D28CE4F5C9F5C875CB4475CA80C2CAD29D
:0408FD00ADD2CA228C
:03000B000207F5F4
:1007F500C0E0C0F0C083C082C0D075D000C000C0CA
:1008050001C002C003C004C005C006C007758A7CCC
:10081500758CFC12097EE5386008053BE53B7002E6
:10082500053AD007D006D005D004D003D002D001B8
:0D083500D000D0D0D082D083D0F0D0E032FF
:03001B00020021BF
:0100210032AC
:03002B0002001EB2
:03001E00C2CF321C
:100901005391F343920CD293759850438780E4F549
:10091100C8758920758E02758DF3C28EC2ABD28ED9
:03092100D2AC2233
:0A09B2008F99E53360FCE4F5332271
:0E099800E53430E706E4F5347F01227F0022CB
:0509F60085992AAF2ADB
:0109FB0022D9
:100842001209F68F32E53454087038E53430E6097F
:10085200EF640A702B75348022E532640D700475E2
:10086200344022742B2534F8A6320534E52B64FA81
:100872006003E4F534D3E534940774809480400334
:04088200E4F5342243
:030023000208B61A
:1008B600C0E0C0D075D000C000C007309905C2990D
:1008C600753301309808C298753501120842D00771
:0708D600D000D0D0D0E032C9
:0D000E00439A3C539BC343A13353A2CC2221
:10066D00EFFB7A00702AEDF5827583007005C2A448
:10067D00C2A522E582640145837005D2A4C2A522DC
:10068D00E582640245836003020719D2A5C2A42244
:10069D00EB64014A7021EDFB7A007005C2A1C2A086
:1006AD0022EB64014A7005D2A1C2A022EB64024A7A
:1006BD00705AD2A0C2A122EFFB7A0064027027ED1E
:1006CD00F5827583007005C285C28422E5826401BE
:1006DD0045837005D285C28422E58264024583700C
:1006ED002BD284C28522EB64034A7020EDFF7E007D
:1006FD007005C282C28322EF64014E7005D282C2A0
:0D070D008322EF64024E7004D283C2822268
:1007A600E5287013752801FB7A0079087FF47E012D
:1007B600FDFC120947D2A57B007A0079081208864B
:1007C600EC4D4E4F6028E5297013752901FB7A0020
:1007D60079107FF47E01FDFC120947D2A07B007AD6
:0F07E600007910120886EC4D4E4F6002D284222B
:0C09A600C2A5C2A0C284E4F528F52922F5
:0709E100539AFE439B012223
:0909CF002080037F01227F002239
:0709E80053A13F43A2C0220E
:10092400EFFD7C006401700920A6037F01227F0093
:1009340022ED64024C700920A7037F01227F00226C
:030944007F00220F
:0609EF00043C00000000C2
:0A09BC00E4F53FF53EF53DF53C2261
:10097E00AF3FAE3EAD3DAC3CEF2401F53FE43EF55E
:0A098E003EE43DF53DE43CF53C225B
:0909D800AF3FAE3EAD3DAC3C2248
:100947008F438E428D418C401209D8120555AF4313
:0C095700AE42AD41AC4090000402056FC0
:100886008B408A418942900004120525120593C3C4
:10089600E53F9BFBE53E9AFAE53D99F9E53C98F87C
:1008A600C3120514E440047F018001FFFEFDFC2213
:10072600020003E493A3F8E493A34003F68001F2E6
:1007360008DFF48029E493A3F85407240CC8C333D4
:10074600C4540F4420C8834004F456800146F6DFA3
:10075600E4800B01020408102040809009EFE47E3B
:10076600019360BCA3FF543F30E509541FFEE49398
:10077600A360010ECF54C025E060A840B8E493A35F
:10078600FAE493A3F8E493A3C8C582C8CAC583CA8A
:10079600F0A3C8C582C8CAC583CADFE9DEE780BE42
:0109F5000001
:10051400EB9FF5F0EA9E42F0E99D42F0E89C45F03D
:0105240022B4
:10052500BB010DE58229F582E5833AF5830205EBEA
:100535005007E92582F80205DFBBFE07E92582F8A9
:100545000205F7E58229F582E5833AF5830206037C
:10055500BB010789828A830206555005E9F8020620
:0A05650049BBFE05E9F80206612219
:10056F00BB010DE58229F582E5833AF58302065535
:10057F005007E92582F8020649BBFE07E92582F8F4
:04058F0002066122DD
:10059300BB010789828A830206205005E9F8020617
:1005A30013BBFE05E9F802062C89828A8302063909
:1005B300EF4E6012EF60010EEDBB010B89828A835F
:1005C300F0A3DFFCDEFA2289F05007F709DFFCA96C
:0C05D300F022BBFEFCF309DFFCA9F022C3
:0C05DF00E6FC08E6FD08E6FE08E6FF2248
:0C05EB00E0FCA3E0FDA3E0FEA3E0FF2283
:0C05F700E2FC08E2FD08E2FE08E2FF2240
:10060300E493FC740193FD740293FE740393FF223D
:0D061300E6FB08E6F908E6FA08E6CBF82257
:0C062000E0F8A3E0F9A3E0FAA3E0FB225D
:0D062C00E2FB08E2F908E2FA08E2CBF8224E
:10063900E493F8740193F9740293FA740393FB2217
:0C064900ECF608EDF608EEF608EFF622DD
:0C065500ECF0A3EDF0A3EEF0A3EFF02218
:0C066100ECF208EDF208EEF208EFF222D5
:00000001FF
