:03000000020712E2
:0C071200787FE4F6D8FD7581430207599A
:0800030012097512002E80FBAA
:100975001209B11209BB1209D612000E1209DD12B5
:0809850008D51208F9D2AF22D7
:10002E007F0112091CEF600302010F7F0212091CEF
:10003E00EF600302010F12098DEF700302049FE5BA
:10004E002DFEE52E8E36F5377E007F077D007B0078
:10005E007A00792B1205ABE53660030200EAE5372C
:10006E002456607124A9B40C00507190008775F06D
:10007E0003A4C58325F0C583730200AB0200AE0254
:10008E0000B10200B40200B70200BA0200BD0200C5
:10009E00CB0200D90200EA0200EA0200DC02019E55
:1000AE000201920201B60201AA0201C20201CE129F
:1000BE0009C4EF6401600302049F0201E51209C442
:1000CE00EF6401600302049F0201FC020464D297F4
:1000DE007F1002045FC2977F2002045F12099BE427
:1000EE00FDFF120665E4FD7F01120665E4FD7F0249
:1000FE001206651209C4EF6401600302049F020335
:10010E00647F0112091CEF700302023A7F0212098A
:10011E001CEF700302023A12098DEF700302049F66
:10012E00E52DFEE52E8E36F5377E007F077D007BB2
:10013E00007A00792B1205ABE5366003020215E555
:10014E00372456700302021024A9B40C0040030297
:10015E00021590016E75F003A4C58325F0C5837357
:10016E0002019202019E0201AA0201B60201C2021E
:10017E0001CE0201DA0201F10202080202150202A8
:10018E001502020B7D02E4FF1206657F0202045F78
:10019E007D01E4FF1206657F0102045F7D027F018F
:1001AE001206657F0402045F7D017F011206657FE2
:1001BE000302045F7D017F021206657F0502045F64
:1001CE007D027F021206657F0602045F1209C4EFEC
:1001DE006401600302049F7D017F031206657F07A1
:1001EE0002045F1209C4EF6401600302049F7D02E2
:1001FE007F031206657F0802045F020464D2970231
:10020E00049FC29702049F12099BE4FDFF1206652C
:10021E00E4FD7F01120665E4FD7F021206651209F8
:10022E00C4EF6401600302049F0203647F0112099C
:10023E001CEF640160030203747F0212091CEF605D
:10024E000302037412098DEF700302049FE52DFE65
:10025E00E52E8E36F5377E007F077D007B007A0017
:10026E00792B1205ABE5366003020342E5372456BF
:10027E00700302033D24A9B40C0040030203429014
:10028E00029B75F003A4C58325F0C583730202BFDC
:10029E000202CB0202D70202E30202EF0202FB02CB
:1002AE00030702031E020335020342020342020346
:1002BE00387D02E4FF1206657F0202045F7D01E4D1
:1002CE00FF1206657F0102045F7D017F0112066544
:1002DE007F0302045F7D027F011206657F04020424
:1002EE005F7D017F021206657F0502045F7D027F3E
:1002FE00021206657F0602045F1209C4EF640160F4
:10030E000302049F7D017F031206657F0702045FCF
:10031E001209C4EF6401600302049F7D027F031281
:10032E0006657F0802045F020464D29702049FC22E
:10033E009702049F12099BE4FDFF120665E4FD7F00
:10034E0001120665E4FD7F021206651209C4EF6410
:10035E0001600302049FFD7F03120665E4F538F584
:10036E003AF53B02049F7F0112091CEF6003020461
:10037E009F7F0212091CEF6401600302049F1209A1
:10038E008DEF700302049FE52DFEE52E8E36F537B8
:10039E007E007F077D007B007A00792B1205ABE58E
:1003AE00366003020471E5372456700302046D248F
:1003BE00A9B40C0040030204719003D575F003A498
:1003CE00C58325F0C583730203F902040402040FEA
:1003DE0002041A02042502043002043B02044E02F7
:1003EE0004640204710204710204697D01E4FF12C7
:1003FE0006657F01805B7D02E4FF1206657F028049
:10040E00507D027F011206657F0480457D017F01CC
:10041E001206657F03803A7D017F021206657F0515
:10042E00802F7D027F021206657F0680241209C48A
:10043E00EF6401705C7D017F031206657F078011FA
:10044E001209C4EF640170497D027F031206657FB5
:10045E00081209A7803B12079E8036D2978032C2BF
:10046E0097802E12099BE4FDFF120665E4FD7F01C5
:10047E00120665E4FD7F021206651209C4EF6401DF
:10048E00700FFD7F03120665E4F538F53AF53BF57E
:10049E00391209C4EF705DE5387018753801FB7AB2
:1004AE000079187FA07E0FFDFC12093FE4FD7F034B
:1004BE001206657B007A00791812087EEC4D4E4FBD
:1004CE00603B7D027F03120665E5397011753901B7
:1004DE00FB7A0079207FB07E36FDFC12093F7B004F
:1004EE007A00792012087EEC4D4E4F6010E4FD7FAD
:0E04FE0003020665E4F538F53AF53BF53922C0
:0909BB0043918053927FC2972200
:1008D500758E07438901758A7C758CFCC28CD2A9FB
:1008E500D28CE4F5C9F5C875CB4475CA80C2CAD2A5
:0408F500ADD2CA2294
:03000B000207EDFC
:1007ED00C0E0C0F0C083C082C0D075D000C000C0D2
:1007FD0001C002C003C004C005C006C007758A7CD5
:10080D00758CFC12095BE5386008053BE53B700211
:10081D00053AD007D006D005D004D003D002D001C0
:0D082D00D000D0D0D082D083D0F0D0E03207
:03001B00020021BF
:0100210032AC
:03002B0002001EB2
:03001E00C2CF321C
:1008F9005391F343920CD293759850438780E4F552
:10090900C8758920758E02758DF3C28EC2ABD28EE1
:03091900D2AC223B
:0A09A7008F99E53360FCE4F533227C
:0E098D00E53430E706E4F5347F01227F0022D6
:0509EB0085992AAF2AE6
:0109F00022E4
:10083A001209EB8F32E53454087038E53430E60992
:10084A00EF640A702B75348022E532640D700475EA
:10085A00344022742B2534F8A6320534E52B64FA89
:10086A006003E4F534D3E53494077480948040033C
:04087A00E4F534224B
:030023000208AE22
:1008AE00C0E0C0D075D000C000C007309905C29915
:1008BE00753301309808C29875350112083AD00781
:0708CE00D000D0D0D0E032D1
:0D000E00439A3C539BC343A13353A2CC2221
:10066500EFFB7A00702AEDF5827583007005C2A450
:10067500C2A522E582640145837005D2A4C2A522E4
:10068500E582640245836003020711D2A5C2A42254
:10069500EB64014A7021EDFB7A007005C2A1C2A08E
:1006A50022EB64014A7005D2A1C2A022EB64024A82
:1006B500705AD2A0C2A122EFFB7A0064027027ED26
:1006C500F5827583007005C285C28422E5826401C6
:1006D50045837005D285C28422E582640245837014
:1006E5002BD284C28522EB64034A7020EDFF7E0085
:1006F5007005C282C28322EF64014E7005D282C2A8
:0D0705008322EF64024E7004D283C2822270
:10079E00E5287013752801FB7A0079087FF47E0135
:1007AE00FDFC12093FD2A57B007A00790812087E63
:1007BE00EC4D4E4F6028E5297013752901FB7A0028
:1007CE0079107FF47E01FDFC12093FD2A07B007AE6
:0F07DE0000791012087EEC4D4E4F6002D284223B
:0C099B00C2A5C2A0C284E4F528F5292200
:0709D600539AFE439B01222E
:0909C4002080037F01227F002244
:0709DD0053A13F43A2C02219
:10091C00EFFD7C006401700920A6037F01227F009B
:10092C0022ED64024C700920A7037F01227F002274
:03093C007F002217
:0609E400043C00000000CD
:0A09B100E4F53FF53EF53DF53C226C
:10095B00AF3FAE3EAD3DAC3CEF2401F53FE43EF581
:0A096B003EE43DF53DE43CF53C227E
:0909CD00AF3FAE3EAD3DAC3C2253
:10093F008F438E428D418C401209CD12054DAF432E
:0C094F00AE42AD41AC40900004020567D0
:10087E008B408A41894290000412051D12058BC3DC
:10088E00E53F9BFBE53E9AFAE53D99F9E53C98F884
:10089E00C312050CE440047F018001FFFEFDFC2223
:10071E00020003E493A3F8E493A34003F68001F2EE
:10072E0008DFF48029E493A3F85407240CC8C333DC
:10073E00C4540F4420C8834004F456800146F6DFAB
:10074E00E4800B01020408102040809009E4E47E4E
:10075E00019360BCA3FF543F30E509541FFEE493A0
:10076E00A360010ECF54C025E060A840B8E493A367
:10077E00FAE493A3F8E493A3C8C582C8CAC583CA92
:10078E00F0A3C8C582C8CAC583CADFE9DEE780BE4A
:0109EA00000C
:10050C00EB9FF5F0EA9E42F0E99D42F0E89C45F045
:01051C0022BC
:10051D00BB010DE58229F582E5833AF5830205E3FA
:10052D005007E92582F80205D7BBFE07E92582F8B9
:10053D000205EFE58229F582E5833AF5830205FB95
:10054D00BB010789828A8302064D5005E9F8020630
:0A055D0041BBFE05E9F80206592231
:10056700BB010DE58229F582E5833AF58302064D45
:100577005007E92582F8020641BBFE07E92582F804
:0405870002065922ED
:10058B00BB010789828A830206185005E9F8020627
:10059B000BBBFE05E9F802062489828A8302063129
:1005AB00EF4E6012EF60010EEDBB010B89828A8367
:1005BB00F0A3DFFCDEFA2289F05007F709DFFCA974
:0C05CB00F022BBFEFCF309DFFCA9F022CB
:0C05D700E6FC08E6FD08E6FE08E6FF2250
:0C05E300E0FCA3E0FDA3E0FEA3E0FF228B
:0C05EF00E2FC08E2FD08E2FE08E2FF2248
:1005FB00E493FC740193FD740293FE740393FF2246
:0D060B00E6FB08E6F908E6FA08E6CBF8225F
:0C061800E0F8A3E0F9A3E0FAA3E0FB2265
:0D062400E2FB08E2F908E2FA08E2CBF82256
:10063100E493F8740193F9740293FA740393FB221F
:0C064100ECF608EDF608EEF608EFF622E5
:0C064D00ECF0A3EDF0A3EEF0A3EFF02220
:0C065900ECF208EDF208EEF208EFF222DD
:00000001FF
