:030000000206CF26
:0C06CF00787FE4F6D8FD75813A0207162A
:0800030012093212002E80FBED
:1009320012096E12097812099312000E12099A1204
:0809420008921208B6D2AF22A0
:10002E007F011208D9EF700302010F7F021208D967
:10003E00EF700302010F12094AEF7003020490E5FC
:10004E0025FEE5268E2EF52F7E007F077D007B0098
:10005E007A007923120568E52E60030200EAE52F87
:10006E002456607124A9B40C00507190008775F06D
:10007E0003A4C58325F0C583730200AB0200AE0254
:10008E0000B10200B40200B70200BA0200BD0200C5
:10009E00CB0200D90200EA0200EA0200DC02019E55
:1000AE000201920201B60201AA0201C20201CE129F
:1000BE000981EF640160030204900201E5120981D7
:1000CE00EF640160030204900201FC020457D29710
:1000DE007F10020452C2977F20020452120958E484
:1000EE00FDFF120622E4FD7F01120622E4FD7F02CF
:1000FE00120622120981EF640160030204900204C9
:10010E00837F011208D9EF600302023A7F021208C0
:10011E00D9EF600302023A12094AEF70030204900B
:10012E00E525FEE5268E2EF52F7E007F077D007BD2
:10013E00007A007923120568E52E6003020215E5A8
:10014E002F2456700302021024A9B40C004003029F
:10015E00021590016E75F003A4C58325F0C5837357
:10016E0002019202019E0201AA0201B60201C2021E
:10017E0001CE0201DA0201F10202080202150202A8
:10018E001502020B7D02E4FF1206227F02020452C8
:10019E007D01E4FF1206227F010204527D027F01DF
:1001AE001206227F040204527D017F011206227F75
:1001BE00030204527D017F021206227F05020452C1
:1001CE007D027F021206227F06020452120981EF7F
:1001DE00640160030204907D017F031206227F07F3
:1001EE00020452120981EF640160030204907D0241
:1001FE007F031206227F08020452020457D297028E
:10020E000490C297020490120958E4FDFF120622D0
:10021E00E4FD7F01120622E4FD7F0212062212097E
:10022E0081EF640160030204900204837F011208CF
:10023E00D9EF640160030203677F021208D9EF60F1
:10024E000302036712094AEF7003020490E525FECC
:10025E00E5268E2EF52F7E007F077D007B007A002F
:10026E007923120568E52E6003020342E52F24561A
:10027E00700302033D24A9B40C0040030203429014
:10028E00029B75F003A4C58325F0C583730202BFDC
:10029E000202CB0202D70202E30202EF0202FB02CB
:1002AE00030702031E020335020342020342020346
:1002BE00387D02E4FF1206227F020204527D01E421
:1002CE00FF1206227F010204527D017F01120622D7
:1002DE007F030204527D027F011206227F04020474
:1002EE00527D017F021206227F050204527D027F9B
:1002FE00021206227F06020452120981EF64016087
:10030E00030204907D017F031206227F070204522E
:10031E00120981EF640160030204907D027F0312D3
:10032E0006227F08020452020457D297020490C29A
:10033E0097020490120958E4FDFF120622E4FD7F95
:10034E0001120622E4FD7F02120622120981EF64D9
:10035E000160030204900204837F011208D9EF604A
:10036E00030204907F021208D9EF640160030204B5
:10037E009012094AEF7003020490E525FEE5268EE1
:10038E002EF52F7E007F077D007B007A00792312E9
:10039E000568E52E6003020464E52F2456700302FF
:1003AE00046024A9B40C0040030204649003C875D1
:1003BE00F003A4C58325F0C583730203EC0203F793
:1003CE0002040202040D02041802042302042E0287
:1003DE00044102045702046402046402045C7D01B9
:1003EE00E4FF1206227F01805B7D02E4FF120622EB
:1003FE007F0280507D027F011206227F0480457DA0
:10040E00017F011206227F03803A7D017F021206D0
:10041E00227F05802F7D027F021206227F06802416
:10042E00120981EF6401705A7D017F031206227F4B
:10043E00078011120981EF640170477D027F03125C
:10044E0006227F08120964803912075B8034D29726
:10045E008030C297802C120958E4FDFF120622E468
:10046E00FD7F01120622E4FD7F021206221209818F
:10047E00EF6401700DFD7F03120622E4F530F531B5
:10048E00F532120981EF7032E5307018753001FBCC
:10049E007A0079187F987E3AFDFC1208FC7D027F67
:1004AE00031206227B007A00791812083BEC4D4E9F
:0B04BE004F6007E4FD7F0312062222BE
:0909780043918053927FC2972243
:10089200758E07438901758A7C758CFCC28CD2A93E
:1008A200D28CE4F5C9F5C875CB4475CA80C2CAD2E8
:0408B200ADD2CA22D7
:03000B000207AA3F
:1007AA00C0E0C0F0C083C082C0D075D000C000C015
:1007BA0001C002C003C004C005C006C007758A7C18
:1007CA00758CFC120918E53060080532E5327002B2
:1007DA000531D007D006D005D004D003D002D0010D
:0D07EA00D000D0D0D082D083D0F0D0E0324B
:03001B00020021BF
:0100210032AC
:03002B0002001EB2
:03001E00C2CF321C
:1008B6005391F343920CD293759850438780E4F595
:1008C600C8758920758E02758DF3C28EC2ABD28E25
:0308D600D2AC227F
:0A0964008F99E52B60FCE4F52B22CF
:0E094A00E52C30E706E4F52C7F01227F002229
:0509A800859922AF2239
:0109AD002227
:1007F7001209A88F2AE52C54087038E52C30E60931
:10080700EF640A702B752C8022E52A640D7004753D
:100817002C40227423252CF8A62A052CE52364FAFC
:100827006003E4F52CD3E52C94077480948040038F
:04083700E4F52C2296
:0300230002086B65
:10086B00C0E0C0D075D000C000C007309905C29958
:10087B00752B01309808C298752D011207F7D00718
:07088B00D000D0D0D0E03214
:0D000E00439A3C539BC343A13353A2CC2221
:10062200EFFB7A00702AEDF5827583007005C2A493
:10063200C2A522E582640145837005D2A4C2A52227
:10064200E5826402458360030206CED2A5C2A422DB
:10065200EB64014A7021EDFB7A007005C2A1C2A0D1
:1006620022EB64014A7005D2A1C2A022EB64024AC5
:10067200705AD2A0C2A122EFFB7A0064027027ED69
:10068200F5827583007005C285C28422E582640109
:1006920045837005D285C28422E582640245837057
:1006A2002BD284C28522EB64034A7020EDFF7E00C8
:1006B2007005C282C28322EF64014E7005D282C2EB
:0D06C2008322EF64024E7004D283C28222B4
:10075B00E5207013752001FB7A0079087FF47E0188
:10076B00FDFC1208FCD2A57B007A00790812083B2D
:10077B00EC4D4E4F6028E5217013752101FB7A007B
:10078B0079107FF47E01FDFC1208FCD2A07B007A6D
:0F079B0000791012083BEC4D4E4F6002D28422C1
:0C095800C2A5C2A0C284E4F520F5212253
:07099300539AFE439B012271
:090981002080037F01227F002287
:07099A0053A13F43A2C0225C
:1008D900EFFD7C006401700920A6037F01227F00DF
:1008E90022ED64024C700920A7037F01227F0022B8
:0308F9007F00225B
:0609A10004330000000019
:0A096E00E4F536F535F534F53322D3
:10091800AF36AE35AD34AC33EF2401F536E43EF5F1
:0A09280035E43DF534E43CF53322DC
:09098A00AF36AE35AD34AC3322BA
:1008FC008F3A8E398D388C3712098A12050AAF3A25
:0C090C00AE39AD38AC3790000402052471
:10083B008B378A3889399000041204DA120548C3C1
:10084B00E5369BFBE5359AFAE53499F9E53398F8EB
:10085B00C31204C9E440047F018001FFFEFDFC22AA
:1006DB00020003E493A3F8E493A34003F68001F232
:1006EB0008DFF48029E493A3F85407240CC8C33320
:1006FB00C4540F4420C8834004F456800146F6DFEF
:10070B00E4800B01020408102040809009A1E47ED4
:10071B00019360BCA3FF543F30E509541FFEE493E3
:10072B00A360010ECF54C025E060A840B8E493A3AA
:10073B00FAE493A3F8E493A3C8C582C8CAC583CAD5
:10074B00F0A3C8C582C8CAC583CADFE9DEE780BE8D
:0109A700004F
:1004C900EB9FF5F0EA9E42F0E99D42F0E89C45F089
:0104D9002200
:1004DA00BB010DE58229F582E5833AF5830205A081
:1004EA005007E92582F8020594BBFE07E92582F840
:1004FA000205ACE58229F582E5833AF5830205B85F
:10050A00BB010789828A8302060A5005E9F80205B7
:0A051A00FEBBFE05E9F802061622FA
:10052400BB010DE58229F582E5833AF58302060ACB
:100534005007E92582F80205FEBBFE07E92582F88B
:040544000206162273
:10054800BB010789828A830205D55005E9F80205AF
:10055800C8BBFE05E9F80205E189828A830205EE37
:10056800EF4E6012EF60010EEDBB010B89828A83AA
:10057800F0A3DFFCDEFA2289F05007F709DFFCA9B7
:0C058800F022BBFEFCF309DFFCA9F0220E
:0C059400E6FC08E6FD08E6FE08E6FF2293
:0C05A000E0FCA3E0FDA3E0FEA3E0FF22CE
:0C05AC00E2FC08E2FD08E2FE08E2FF228B
:1005B800E493FC740193FD740293FE740393FF2289
:0D05C800E6FB08E6F908E6FA08E6CBF822A3
:0C05D500E0F8A3E0F9A3E0FAA3E0FB22A9
:0D05E100E2FB08E2F908E2FA08E2CBF8229A
:1005EE00E493F8740193F9740293FA740393FB2263
:0C05FE00ECF608EDF608EEF608EFF62229
:0C060A00ECF0A3EDF0A3EEF0A3EFF02263
:0C061600ECF208EDF208EEF208EFF22220
:00000001FF
