:030000000210EA01
:0C10EA00787FE4F6D8FD758167021131B3
:0800030012002E1214B080FB64
:10002E0012176A1217D912181212001E1217CF12B7
:10003E0018041218191216687BFF7A0879C812175D
:0D004E008D1218207D807C257F020212AEED
:1014B00012182412171A7B007A007941121516ECC3
:1014C0004D4E4F601D7B007A0079417FBC7E027DCE
:1014D000007C001216C9E540FB7A007DFB7FFA1202
:0314E00014722261
:101176000000000000000005000A0BB800C800646B
:101186000002000000000004FFFFFFFFFFFFFFFF5B
:101196000014022A04081705010E022A0408150580
:1011A60000E8022A04080F0500DC022A04081105DB
:1011B60000E0022A0408130500E5022A04081305C4
:1011C600010F022A0408130500E0022A0408130589
:1011D60000E2022A0408110500D6022A04081D05A9
:0211E60000CF38
:0412FF004100930017
:0B17A500901180E493FE740193FF227A
:0B17B000901184E493FE740193FF226B
:0817EC0090117E740193FF22AD
:031828007F01221B
:1015A100AD07ED75F008A4249EF582E43411F583AE
:1015B100E493FEED75F008A4249FF582E43411F55F
:0C15C10083E4937C002400FFEC3EFE223B
:10174600EF75F008A4249BF582E43411F583E49345
:02175600FF2270
:0817F400901178740193FF22AB
:10175800EF75F008A4249CF582E43411F583E49332
:02176800FF225E
:0817FC00900000E0C313FF227E
:0A17BB00900000E075F00384FF22A7
:101731001215A1EF7803C333CE33CED8F9FF7C0065
:051741007D0A02043ADC
:10125900E4FBFAF50BF50AF509F508750B38750A7B
:10126900D375090CF508EBC3941774809480503238
:10127900AF0BAE0AAD09AC0878011205128F0B8EBF
:101289000A8D098C0830D717741F2AF582E43400B7
:10129900F583EBF00AEAC3940A7480948050030B37
:0412A90080C48A591A
:0112AD00221E
:10157400EF146012146014146011146015240470C4
:10158400199011988008901199800390119AE4930E
:0D159400FF2290118A740193FF227F002234
:10168C0090117C740193900000F09011967401936A
:0F169C00900074F0121259E4900072F0A3F02243
:100B8000E4F509F50DF50CF50BF50AF511F510F581
:100B90000FF50E12182E5003020C9C1216438F0DE7
:100BA0008E0C8D0B8C0AE4FBEBC395595047AF0DAF
:100BB000AE0CAD0BAC0A78011205128F0D8E0C8DA8
:100BC0000B8C0A30D72CE47F01FEFDFC741F2BF543
:100BD00082E43400F583E0F9F8120525E5114FF5BC
:100BE00011E5104EF510E50F4DF50FE50E4CF50E25
:100BF00005090B80B3AF097E00C3EF9402748094A3
:100C0000804018D200EF940374809480400512183D
:100C10003180081217F4EF6002C20020002CE4FFBC
:100C2000FEFDFCAB11AA10A90FA80EC312050160AE
:100C300010900073E004F07006900072E004F08001
:100C400020E4900072F0A3F08017900070E004F0B0
:100C5000700690006FE004F0E4F511F510F50FF563
:100C60000E1217A5D3900073E09F900072E09E4093
:100C70000A121831E4900072F0A3F0D3900070E0F3
:100C8000942C90006FE09401401D12183190009355
:100C90007401F0E490006FF0A3F0800B901186E4F3
:0F0CA000740193FF120CB0AF11AE10AD0FAC0E7C
:010CAF002222
:041303004100D100D4
:100DCF0075F0029000751205C6E0FEA3E0FFE51472
:100DDF0075F0029000290205C6E51375F002900028
:100DEF00010205C6E51375F0029000510205C674A5
:100DFF003D2517F582E43400F58322D3E5159FEEE8
:100E0F006480F8E5146480982274652513F582E4F4
:100E1F003400F58322D3FFED9FEE6480F8EC6480FD
:100E2F00982274892513F582E43400F58322E004B7
:100E3F00F074152513F582E43400F58322E514755B
:100E4F00F0029000750205C6FEC3E5169FEE6480A2
:100E5F00F8E51564809822E5545558FFE55355572A
:100E6F00FEE5525556FDE5515555FC2274472513A5
:100E7F00F582E43400F58322E4F0FFFEFDFCAB5471
:100E8F00AA53A952A851C30205017E009000CDE0DC
:100E9F00FCA3E0FD1204288EE78FE622E0FEA3E01C
:100EAF00FF75F00222A4FFE0C39FE5F06480F874A1
:100EBF00809822900074E0FB3395E0FAEBAE0222AB
:100ECF00E0FCA3E0FDEF22E0FCA3E0C39F22900033
:080EDF0074E0FF3395E0FE22F0
:0C000E00EF4E6007EF1F70F81E80F52217
:03005B0002105838
:10105800C0E0C0F0C083C082C0D075D000C000C05E
:0D10680001C002C003C004C005C006C007DF
:10107500C2029000D2E0120DDFE5E5F0A3E5E4F051
:101085009000D2E004F0E0C39559400BE4F09000E5
:1010950071E04480F08002D2029000D2E0FF121786
:1010A50046120E999000D2E0FF121758E5E25480DF
:1010B5004FF5E29000D2E0241FF582E43400F58379
:0A10C500E04480F5E8300202D2EEAC
:1010CF00D007D006D005D004D003D002D001D00075
:0B10DF00D0D0D082D083D0F0D0E0321F
:1011E800D2AF75E880C201E49000D2F0900071F0AF
:1011F80012168CE4FF121574EF2401FDE433FC7E13
:101208000B7FB812043A9000CDEEF0A3EFF0E4FFA4
:10121800121746120E997F02121574EFC454F0FE8D
:10122800C006E4FF121574D0E02FF5E17F03121514
:1012380074E5E254804FF5E27F011215748FE312D2
:10124800134C43A91090001FE042E81214E3021661
:01125800E5B0
:03182B00D2EE22D8
:10161E00E4FD900071E0547FF0D2EE900071E02076
:10162E00E7127FE87E0312000E43CF100DEDC39438
:04163E003240E8222C
:011642002285
:1014E30075081012161EAF081508EF70F61216AB2A
:1014F3001217EC8F0812161EE4F509E509C3955976
:101503005009AF09120EE7050980F0AF081508EF7F
:0215130070E383
:0115150022B3
:1016E500E4FFEFC395595012EF120DDF120ECF1222
:0A16F5000DEAECF0A3EDF00F80E821
:0116FF0022C8
:10164300E49000D3F0F512E512C39559500EAF1292
:10165300120EE7AF1212005E051280EBAF54AE53C9
:04166300AD52AC5187
:011667002260
:02005E008F13FE
:10006000E4F51B75F002EF120DED120EABE5131265
:100070000DE2120ED6F515EC9EF514E47F01FEFD9F
:10008000FCA913A8011205258F588E578D568C5543
:10009000AF131215A18E198F1AC3E515951AE5191C
:1000A000120E0F40057516018003E4F516E516647F
:1000B0000160030201E5743D2513120E02E0C394B2
:1000C000FA500A743D2513120E02E004F0120E6677
:1000D000E4FBFAF9F8C312050160030201C89000BD
:1000E00000E0F518121828EF6028E4F516F517E57A
:1000F00017C39559500F120DFEE0C394014002053D
:1001000016051780EAE516C394034006740F2518F8
:10011000F518743D2513120E02E0C3951850030222
:1001200001C8E4F5161217F4EF7051F517E517C37F
:100130009559501AE513651760101217BB120DFE82
:10014000E0C39F40057516018004051780DF121873
:1001500028EF7052E516704EF517E517C395595004
:1001600045E513651760111217BB74472517120E6A
:100170007FE0C39F4002802B051780DE121828EF16
:100180007024F518F517E517C39559500F120DFE99
:10019000E0C3940240020518051780EAE518C394ED
:1001A000034003751601E516B40102D200E554457B
:1001B00058FFE5534557FEE5524556FDE551455577
:1001C0008F548E538D52F551120E18E4F0120E31E9
:1001D000E4F0120DF3E4F0A3F074152513F582E4B6
:1001E00034000203B8AF13121731120E0A4008127E
:1001F0000E7BE004F0800B9000D3E004F0120E7B45
:10020000E4F0120EDDC3E49FFDE49EFCC3E5159D02
:10021000EC120E0F4066120E0A5061120E18E41214
:100220000E3F120E876003020325120DF3E51485BD
:1002300015F012048F1217B0120DF3E0FCA3E0C307
:10024000120E274009120DE8E475F0018021121703
:10025000B0C3E49FFFE49EFE120DF3E0FCA3E0C3F5
:10026000120E274003020325120DE874FFF5F01269
:10027000048F120DF3E4F0A3F0020325900074E064
:10028000FFFD3395E0FCC3E49DFDE49CFCC3E51554
:100290009DEC120E0F5057120E18120E3DE4F01284
:1002A0000E18E0FE75F00A84E5F07034EEC3946435
:1002B000400E120E18E4F0D20190009304F080205A
:1002C000120DE8C083C082120ECFA2E713FF339550
:1002D000E0FEC3ED9FFFEC9ED082D083F0A3EFF051
:1002E0009000CCE06513703D74FFF0020325120E00
:1002F000DD120E0A402F120E18120E877027120EF2
:1003000040120E3DE0B4201D120E40E4F090007447
:10031000E0A2E713A2E713FF3395E0FE120DE8EE2B
:100320008FF012048F120E664D4E4F70030203C4FD
:10033000E51AAE197802CEA2E713CE13D8F8FFC3A0
:10034000E51A9FFFE5199EFEC3120E0B506F120EA9
:1003500031E004F01217FC8F18E4F517E517C39588
:1003600059500F120DFEE0C3940140020516051707
:1003700080EAE516C394034006900000E0F51812E9
:100380000E31E0C395184072120E31E4F0AF58AE52
:1003900057AD56AC551204F4E5545FFFE5535EFECD
:1003A000E5525DFDE5515C8F548E538D52F55174CD
:1003B0003D2513F582E43400F583E4F022120E317A
:1003C000E014F022743D2513120E02E4F0E55914F6
:1003D000651370269000D3E0C39559401DE4F517CE
:1003E000E517C39559500D120DFEE0600375160117
:0A03F000051780ECE5167002C2004C
:0103FA0022E0
:1016AB00E4FFEFC39559501575F002EF120DE212DE
:0D16BB000ECF120E4EECF0A3EDF00F80E507
:0116C80022FF
:020EE7008F1466
:100EE900EF120DCF120ED6F516EC9EF515AF1412B2
:100EF90015A1AD07AC06D3E5169DEC120E5D500B9E
:100F0900C3E49DFFE49C120E57500B120DDDE0FE69
:100F1900A3E0FF020F8FECA2E713FEED13FFD3123C
:100F29000E59500BC3E49FFFE49E120E575027122F
:100F39000E4CE0FCA3E0FDECC313FEED13FFC3ED83
:100F49009FFDEC9EFC120DDDE0C313FEA3E0132D03
:100F5900FFEC3EFE8030120E4CE0FCA3E0FDAE0437
:100F69007803CEC313CE13D8F9FFC3ED9FFDEC9ED2
:100F7900FC120DDDE0FEA3E07803CEC313CE13D837
:100F8900F92DFFEC3EFE120E4CEEF0A3EFF0E51446
:080F9900120DCFEEF0A3EFF002
:010FA100222D
:03182E00A20122F2
:03183100D20122BF
:10134C00E4FFEFC39559502B743D2F120E02E4F0BD
:10135C0074652F120E1CE4F074892F120E35E4F014
:10136C00EF120DF5E4F0A3F074472F120E7FE4F0AA
:10137C000F80CFE4F554F553F552F5519000CC7431
:0B138C00FFF0E49000CFF0A3F0C201DE
:011397002233
:020CB0008F12A1
:100CB2009000D1E0C394034035E4F0900093E070DB
:100CC20022F513E513C39559501975F002E5131275
:100CD2000E51120EABE513120DEDEEF0A3EFF0057F
:100CE2001380E012134CC201E4900093F0229000B2
:100CF200CBE004F0E0B512081216ABE49000CCF0A1
:100D02009000CBE0D395125003020DCEE4F513E52B
:100D120013C39559507A75F002E513120E51120E53
:100D2200ABE513120DE2120ED6FFEC9EAD07FC905E
:100D32000093E07029120EC27802C333CE33CED8AC
:100D4200F9120E244040E49BFFE49AFEEF7802C3BE
:100D520033CE33CED8F9C3120E25502A8032120E6A
:100D6200C27803C333CE33CED8F9120E244017E42F
:100D72009BFFE49AFEEF7803C333CE33CED8F9FF5C
:100D8200C3120E26400AAF13120EE70513020D110D
:100D9200E513B559069000CCE004F0E51275F008B1
:100DA2009000CB120EB44024E4F0C2009000D1E0D7
:100DB20004F0E51275F0049000CC120EB4400DE47C
:0C0DC2009000D1F01216E512134CC20193
:010DCE002202
:0718040043A12053A2DF22E3
:10166800758E07758911758A18758CFCC28CD2A97C
:10167800D28CE4F5C9F5C875CBFC75CA18C2CAD2B4
:04168800ADD2CA22F3
:03000B0002139845
:10139800C0E0C0F0C083C082C0D075D000C000C01B
:1013A80001C002C003C004C005C006C007C2AF75B3
:1013B8008A18758CFC1217001213E31215F7D2AFB6
:1013C800D007D006D005D004D003D002D001D00079
:0B13D800D0D0D082D083D0F0D0E03223
:03001B0002180BBD
:07180B00758B9C758DFF3207
:03002B0002183484
:03183400C2CF32EE
:1012AE008D828C835391F375920C43878075985081
:1012BE00E4F5C8758E03758920FCFDFE7B407A42ED
:1012CE00790FF81204A5C006C007AE83AF82AB0734
:1012DE00AA06E4F9F8D007D00612142EE47B10FA11
:1012EE00F9F812142EEFF404F58DD28ED2ACD2AFE3
:0112FE0022CD
:0A17C5008F99E56360FCE4F56322F0
:061546008B138A148915C5
:10154C00E4F561C3E5619407748094805017AB1384
:10155C00AA14A9158561827583001203FBFF12176B
:07156C00C5056180DE7F016F
:011573002255
:081472008F088D098A0A8B0B1B
:10147A007E007F077D007B007A00790C1205D885F3
:10148A00080C85090DE50AF50EE50BF50FE50C25A7
:10149A000D250E250FF51075110D75120A7B007AB0
:0614AA0000790C0215465A
:0300230002177C45
:10177C00309905C299756301309805C2987562015C
:01178C00322A
:101307000132FF603700940000000000010203046F
:1013170005060708090A0B0C0D0E0F1011121314FE
:1013270015161718191A1B1C1D1E1F2021222324EE
:0E13370025262728292A2B2C2D2E2F30313247
:100FA200E4F509F50A7F01120760EC4D4E4F60052A
:100FB200050A7509017F02120760EC4D4E4F60056C
:100FC200050A7509027F03120760EC4D4E4F60055A
:100FD200050A7509037F04120760EC4D4E4F600548
:100FE200050A7509047F05120760EC4D4E4F600536
:100FF200050A7509057F06120760EC4D4E4F600524
:10100200050A7509067F07120760EC4D4E4F600511
:10101200050A7509077F08120760EC4D4E4F6005FF
:10102200050A7509087F09120760EC4D4E4F6005ED
:10103200050A7509097F0A120760EC4D4E4F6005DB
:10104200050A75090AD3E50A940174809480400365
:051052007509FFAF0964
:011057002276
:10176A001211E8E4F52CFB7A007938FFFEFDFC0241
:02177A0016C98E
:0208C8008F0897
:1008CA007E00EF701AAD40ED640C6005ED64AA700D
:1008DA0005E4F5378003E4F540E4F523020A13EF53
:1008EA0064024E702DE5677029E5376003020A132A
:1008FA007537010521E52130E00C75400C752E0194
:10090A00120026020A137540AAE4F52E12001E02EE
:10091A000A13E5086407700AE56770061215CD0226
:10092A000A13AF087E00EF640B7013E567700FE5DA
:10093A004064017003020A13754001020A13EF644E
:10094A00104E7013E567700FE54064027003020AE7
:10095A0013754002020A13E50864157013E56770FF
:10096A000FE54064037003020A13754003020A1379
:10097A00AF087E00EF641A7012E567700EE54064F6
:10098A00047003020A13754004807EEF641F4E70E0
:10099A000FE567700BE5406405606E754005806978
:1009AA00E5086424700FE567700BE540640660593A
:1009BA007540068054AF087E00EF6429700FE56722
:1009CA00700BE54064076041754007803CEF642E78
:1009DA004E700FE567700BE5406408602C7540089F
:1009EA008027E5086409700FE567700BE540640924
:1009FA0060177540098012E5086404700CE52370DD
:100A0A00087523010522121799E52230E004E4F55E
:100A1A006422E52E6003020026E52E640212001EFF
:010A2A0022A9
:100A2B00900071E030E711547FF0120B808F368EFF
:100A3B00358D348C3312182B7B007A0079381215D4
:100A4B0016EC4D4E4F70037FFF227B007A007938F6
:100A5B007F0A7E007D007C001216C9120FA28F0840
:100A6B00EFF470037FFF22E52C14603014606C14DC
:100A7B007003020B3024036003020B7AE50870024B
:100A8B00FF228508327B007A0079247F0A7E007D65
:100A9B00007C001216C9752C01020B7DE53265082E
:100AAB006003020B7A7B007A007924121516EC4D49
:100ABB004E4F7003020B7D7B007A0079247F107EF2
:100ACB00277D007C001216C9752C02E53275F005E6
:100ADB00A42494F582E43400020B75E532650860BA
:100AEB0012E4F52CE53275F005A42495F582E43477
:100AFB000080777B007A007924121516EC4D4E4F4F
:100B0B0060707B007A0079247F0A7E007D007C0078
:100B1B001216C9752C03E53275F005A42496F582DF
:100B2B00E434008045E53265086012E4F52CE532CB
:100B3B0075F005A42498F582E43400802D7B007AAF
:100B4B00007924121516EC4D4E4F60267B007A006F
:100B5B0079247F0A7E007D007C001216C9E5327570
:100B6B00F005A42497F582E43400F583E0FF22E43A
:040B7B00F52C7FFFD7
:010B7F002253
:0C178D00EA494B60068B2F8A308931221C
:10171A00120A2B8F2DE5304531452F60098531821C
:07172A008530831205D62271
:100760008F0BEF6401701D7F08FEFDFCAB36AA35D0
:10077000A934A833C312050170057F080208C4E438
:10078000FF0208C4E50B6402701D7F10FEFDFCAB88
:1007900036AA35A934A833C312050170057F1002AB
:1007A00008C4E4FF0208C4E50B6403701EFF7E105A
:1007B000FDFCAB36AA35A934A833C3120501700677
:1007C000FF7E10FDFC22E4FF0208C4E50B64047008
:1007D0001EFF7E02FDFCAB36AA35A934A833C31236
:1007E00005017006FF7E02FDFC22E4FF0208C4E55D
:1007F0000B6405701EFF7E01FDFCAB36AA35A934E3
:10080000A833C31205017006FF7E01FDFC22E4FF40
:100810000208C4E50B6406701D7F20FEFDFCAB36AC
:10082000AA35A934A833C312050170057F20020838
:10083000C4E4FF0208C4E50B6407701DFFFE7D08D9
:10084000FCAB36AA35A934A833C31205017006FFE4
:10085000FE7D08FC22E4FF806BE50B6408701DFF41
:10086000FE7D04FCAB36AA35A934A833C3120501BA
:100870007006FFFE7D04FC22E4FF8048E50B64095E
:10088000701DFF7E80FDFCAB36AA35A934A833C3AA
:100890001205017006FF7E80FDFC22E4FF8025E545
:1008A0000B640A701DFF7E40FDFCAB36AA35A934EF
:1008B000A833C31205017006FF7E40FDFC22E4FF51
:0808C0008002E4FFFEFDFC22B2
:07181200439A01539BFE22E3
:04001E0075640F22D4
:040026007564642277
:1015F7000566E56670020565D39464E56594004069
:1016070005E4F565F566D3E5669564E56594004000
:0716170003C28022D28022F1
:0A17CF00439A06539BF9758000222F
:1015CD00055AE55A30E00E5380F9438002755E01ED
:1015DD00E4F55B800C5380F9438004E4F55E755BA4
:0915ED0001F55FF560F55CF55DA8
:0115F60022D2
:1013E300E55E60210560E5607002055FD394E0E58A
:1013F3005F942E4010E4F55FF560F55CF55D538076
:10140300F9F55EF55BE55B6021055DE55D70020561
:101413005CD394E0E55C942E4010E4F55FF560F551
:0B1423005CF55D5380F9F55EF55B227F
:0718190043A12053A2DF22CE
:0C179900E567700475670122E4F5672223
:0418200043CF102280
:0418240043CF10227C
:06134500041C0000000082
:0A17D900E4F51FF51EF51DF51C22B6
:10170000AF1FAE1EAD1DAC1CEF2401F51FE43EF56E
:0A1710001EE43DF51DE43CF51C222B
:0917E300AF1FAE1EAD1DAC1C22AF
:1016C9008F0C8E0B8D0A8C091217E3120568AF0C6B
:0C16D900AE0BAD0AAC09900004020582C3
:101516008B098A0A890B9000041205381205A6C3A6
:10152600E51F9BFBE51E9AFAE51D99F9E51C98F85F
:10153600C3120501E440047F018001FFFEFDFC2289
:1010F600020003E493A3F8E493A34003F68001F20D
:1011060008DFF48029E493A3F85407240CC8C333FA
:10111600C4540F4420C8834004F456800146F6DFC9
:10112600E4800B01020408102040809012FFE47E48
:10113600019360BCA3FF543F30E509541FFEE493BE
:10114600A360010ECF54C025E060A840B8E493A385
:10115600FAE493A3F8E493A3C8C582C8CAC583CAB0
:10116600F0A3C8C582C8CAC583CADFE9DEE780BE68
:01134B0000A1
:1003FB00BB010CE58229F582E5833AF583E02250B7
:10040B0006E92582F8E622BBFE06E92582F8E22200
:0D041B00E58229F582E5833AF583E493221A
:10042800EF8DF0A4A8F0CF8CF0A428CE8DF0A42EE8
:02043800FE22A2
:10043A00BC000BBE0029EF8DF084FFADF022E4CCA6
:10044A00F875F008EF2FFFEE33FEEC33FCEE9DEC6F
:10045A00984005FCEE9DFE0FD5F0E9E4CEFD22EDB5
:10046A00F8F5F0EE8420D21CFEADF075F008EF2FFF
:10047A00FFED33FD4007985006D5F0F222C398FDF0
:05048A000FD5F0EA228D
:10048F00C5F0F8A3E028F0C5F0F8E58215827002F8
:06049F001583E038F02295
:1004A500E88FF0A4CC8BF0A42CFCE98EF0A42CFCF6
:1004B5008AF0EDA42CFCEA8EF0A4CDA8F08BF0A474
:1004C5002DCC3825F0FDE98FF0A42CCD35F0FCEBD3
:1004D5008EF0A4FEA9F0EB8FF0A4CFC5F02ECD3998
:0F04E500FEE43CFCEAA42DCE35F0FDE43CFC2205
:10142E00C2D5E830E70FB2D5E4C39BFBE49AFAE4E9
:10143E0099F9E498F8EC30E717B2D5121464120655
:10144E0040E4C39BFBE49AFAE499F9E498F880032C
:10145E0012064030D50DE4C39FFFE49EFEE49DFDD1
:04146E00E49CFC22DC
:0D04F400CFF4CFCEF4CECDF4CDCCF4CC229D
:10050100EB9FF5F0EA9E42F0E99D42F0E89C45F050
:0105110022C7
:10051200E8600FECC313FCED13FDEE13FEEF13FFC7
:03052200D8F122EB
:10052500E8600FEFC333FFEE33FEED33FDEC33FC34
:03053500D8F122D8
:10053800BB010DE58229F582E5833AF5830206DEE3
:100548005007E92582F80206D2BBFE07E92582F8A2
:100558000206EAE58229F582E5833AF5830206F682
:10056800BB010789828A830207485005E9F8020718
:0A0578003CBBFE05E9F8020754221F
:10058200BB010DE58229F582E5833AF5830207482E
:100592005007E92582F802073CBBFE07E92582F8ED
:0405A20002075422D6
:1005A600BB010789828A830207135005E9F802070F
:1005B60006BBFE05E9F802071F89828A8302072C1B
:0C05C600A42582F582E5F03583F5832240
:0605D2008A838982E473B4
:1005D800EF4E6012EF60010EEDBB010B89828A833A
:1005E800F0A3DFFCDEFA2289F05007F709DFFCA947
:0C05F800F022BBFEFCF309DFFCA9F0229E
:1006040075F008758200EF2FFFEE33FECD33CDCCAD
:1006140033CCC58233C5829BED9AEC99E582984030
:100624000CF582EE9BFEED9AFDEC99FC0FD5F0D60D
:10063400E4CEFBE4CDFAE4CCF9A88222B800C1B937
:100644000059BA002DEC8BF084CFCECDFCE5F0CB75
:10065400F97818EF2FFFEE33FEED33FDEC33FCEBAE
:1006640033FB10D703994004EB99FB0FD8E5E4F969
:10067400FA227818EF2FFFEE33FEED33FDEC33FC56
:10068400C933C910D7059BE99A4007EC9BFCE99A4A
:10069400F90FD8E0E4C9FAE4CCFB2275F010EF2F8F
:1006A400FFEE33FEED33FDCC33CCC833C810D7078F
:1006B4009BEC9AE899400AED9BFDEC9AFCE899F8CA
:0E06C4000FD5F0DAE4CDFBE4CCFAE4C8F9225D
:0C06D200E6FC08E6FD08E6FE08E6FF2254
:0C06DE00E0FCA3E0FDA3E0FEA3E0FF228F
:0C06EA00E2FC08E2FD08E2FE08E2FF224C
:1006F600E493FC740193FD740293FE740393FF224A
:0D070600E6FB08E6F908E6FA08E6CBF82263
:0C071300E0F8A3E0F9A3E0FAA3E0FB2269
:0D071F00E2FB08E2F908E2FA08E2CBF8225A
:10072C00E493F8740193F9740293FA740393FB2223
:0C073C00ECF608EDF608EEF608EFF622E9
:0C074800ECF0A3EDF0A3EEF0A3EFF02224
:0C075400ECF208EDF208EEF208EFF222E1
:00000001FF
