:030000000210DD0E
:0C10DD00787FE4F6D8FD758166021124CE
:0800030012002E12149F80FB75
:10002E001217B71217F012001E1217AD1217E212A6
:10003E0017F71217111217487BFF7A0879C8121793
:0D004E006B1217FE7D807C257F020212A13F
:10149F001218021216E57B007A007940121505EC3E
:1014AF004D4E4F601D7B007A0079407FBC7E027DE0
:1014BF00007C00121694E53FFB7A007DFB7FFA1249
:0314CF0014612283
:101169000000000000000005000A0BB800C8006478
:101179000002000000000004FFFFFFFFFFFFFFFF68
:101189000014022A04081705010E022A040815058D
:1011990000E8022A04080F0500DC022A04081105E8
:1011A90000E0022A0408130500E5022A04081305D1
:1011B900010F022A0408130500E0022A0408130596
:1011C90000E2022A0408110500D6022A04081D05B6
:0211D90000CF45
:0412F2004100930024
:0B178300901173E493FE740193FF22A9
:0B178E00901177E493FE740193FF229A
:0817CA00901171740193FF22DC
:031806007F01223D
:10159000AD07ED75F008A42491F582E43411F583CC
:1015A000E493FEED75F008A42492F582E43411F57D
:0C15B00083E4937C002400FFEC3EFE224C
:10172400EF75F008A4248EF582E43411F583E49374
:02173400FF2292
:0817D20090116B740193FF22DA
:10173600EF75F008A4248FF582E43411F583E49361
:02174600FF2280
:0817DA00900000E0C313FF22A0
:0A179900900000E075F00384FF22C9
:1016FC00121590EF7803C333CE33CED8F9FF7C00AC
:05170C007D0A02043A11
:10124C00E4FBFAF50BF50AF509F508750B38750A88
:10125C00D375090CF508EBC3941774809480503245
:10126C00AF0BAE0AAD09AC0878011205128F0B8ECC
:10127C000A8D098C0830D717741F2AF582E43400C4
:10128C00F583EBF00AEAC3940A7480948050030B44
:04129C0080C48A5828
:0112A000222B
:10156300EF146012146014146011146015240470D5
:101573001990118B800890118C800390118DE49346
:0D158300FF2290117D740193FF227F002252
:1016570090116F740193900000F0901189740193B9
:0F166700900074F012124CE4900072F0A3F02285
:100B7300E4F509F50DF50CF50BF50AF511F510F58E
:100B83000FF50E12180C5003020C8F1216328F0D34
:100B93008E0C8D0B8C0AE4FBEBC395585047AF0DBD
:100BA300AE0CAD0BAC0A78011205128F0D8E0C8DB5
:100BB3000B8C0A30D72CE47F01FEFDFC741F2BF550
:100BC30082E43400F583E0F9F8120525E5114FF5C9
:100BD30011E5104EF510E50F4DF50FE50E4CF50E32
:100BE30005090B80B3AF097E00C3EF9402748094B0
:100BF300804018D200EF940374809480400512184B
:100C03000F80081217D2EF6002C20020002CE4FF0D
:100C1300FEFDFCAB11AA10A90FA80EC312050160BB
:100C230010900073E004F07006900072E004F0800E
:100C330020E4900072F0A3F08017900070E004F0BD
:100C4300700690006FE004F0E4F511F510F50FF570
:100C53000E121783D3900073E09F900072E09E40C2
:100C63000A12180FE4900072F0A3F0D3900070E022
:100C7300942C90006FE09401401D12180F90009384
:100C83007401F0E490006FF0A3F0800B901179E40D
:0F0C9300740193FF120CA3AF11AE10AD0FAC0E96
:010CA200222F
:0412F6004100D100E2
:100DC20075F0029000751205C6E0FEA3E0FFE5147F
:100DD20075F0029000290205C6E51375F002900035
:100DE200010205C6E51375F0029000510205C674B2
:100DF2003D2517F582E43400F58322D3E5159FEEF5
:100E02006480F8E5146480982274652513F582E401
:100E12003400F58322D3FFED9FEE6480F8EC64800A
:100E2200982274892513F582E43400F58322E004C4
:100E3200F074152513F582E43400F58322E5147568
:100E4200F0029000750205C6FEC3E5169FEE6480AF
:100E5200F8E51564809822E5535557FFE55255563B
:100E6200FEE5515555FDE5505554FC2274472513B6
:100E7200F582E43400F58322E4F0FFFEFDFCAB537F
:100E8200AA52A951A850C30205017E009000CDE0EC
:100E9200FCA3E0FD1204288EE78FE622E0FEA3E029
:100EA200FF75F00222A4FFE0C39FE5F06480F874AE
:100EB200809822900074E0FB3395E0FAEBAE0222B8
:100EC200E0FCA3E0FDEF22E0FCA3E0C39F22900040
:080ED20074E0FF3395E0FE22FD
:0C000E00EF4E6007EF1F70F81E80F52217
:03005B0002104B45
:10104B00C0E0C0F0C083C082C0D075D000C000C06B
:0D105B0001C002C003C004C005C006C007EC
:10106800C2029000D2E0120DD2E5E5F0A3E5E4F06B
:101078009000D2E004F0E0C39558400BE4F09000F3
:1010880071E04480F08002D2029000D2E0FF121793
:1010980024120E8C9000D2E0FF121736E5E254803D
:1010A8004FF5E29000D2E0241FF582E43400F58386
:0A10B800E04480F5E8300202D2EEB9
:1010C200D007D006D005D004D003D002D001D00082
:0B10D200D0D0D082D083D0F0D0E0322C
:1011DB00D2AF75E880C201E49000D2F0900071F0BC
:1011EB00121657E4FF121563EF2401FDE433FC7E66
:1011FB000B7FB812043A9000CDEEF0A3EFF0E4FFB2
:10120B00121724120E8C7F02121563EFC454F0FEDA
:10121B00C006E4FF121563D0E02FF5E17F03121532
:10122B0063E5E254804FF5E27F011215638FE31201
:10123B00133F43A91090001FE042E81214D202168C
:01124B00B0F2
:03180900D2EE22FA
:10160D00E4FD900071E0547FF0D2EE900071E02087
:10161D00E7127FE87E0312000E43CF100DEDC39449
:04162D003240E8223D
:011631002296
:1014D20075081012160DAF081508EF70F612167681
:1014E2001217CA8F0812160DE4F509E509C39558BB
:1014F2005009AF09120EDA050980F0AF081508EF9E
:0215020070E394
:0115040022C4
:1016B000E4FFEFC395585012EF120DD2120EC21272
:0A16C0000DDDECF0A3EDF00F80E863
:0116CA0022FD
:10163200E49000D3F0F512E512C39558500EAF12A4
:10164200120EDAAF1212005E051280EBAF53AE52E9
:04165200AD51AC509A
:011656002271
:02005E008F13FE
:10006000E4F51B75F002EF120DE0120E9EE513127F
:100070000DD5120EC9F515EC9EF514E47F01FEFDB9
:10008000FCA913A8011205258F578E568D558C5447
:10009000AF131215908E198F1AC3E515951AE5192D
:1000A000120E0240057516018003E4F516E516648C
:1000B0000160030201E5743D2513120DF5E0C394C0
:1000C000FA500A743D2513120DF5E004F0120E5992
:1000D000E4FBFAF9F8C312050160030201C89000BD
:1000E00000E0F518121806EF6028E4F516F517E59C
:1000F00017C39558500F120DF1E0C394014002054B
:1001000016051780EAE516C394034006740F2518F8
:10011000F518743D2513120DF5E0C3951850030230
:1001200001C8E4F5161217D2EF7051F517E517C3A1
:100130009558501AE51365176010121799120DF1B2
:10014000E0C39F40057516018004051780DF121873
:1001500006EF7052E516704EF517E517C395585027
:1001600045E5136517601112179974472517120E8C
:1001700072E0C39F4002802B051780DE121806EF45
:100180007024F518F517E517C39558500F120DF1A7
:10019000E0C3940240020518051780EAE518C394ED
:1001A000034003751601E516B40102D200E553457C
:1001B00057FFE5524556FEE5514555FDE55045547E
:1001C0008F538E528D51F550120E0BE4F0120E2407
:1001D000E4F0120DE6E4F0A3F074152513F582E4C3
:1001E00034000203B8AF131216FC120DFD400812C2
:1001F0000E6EE004F0800B9000D3E004F0120E6E5F
:10020000E4F0120ED0C3E49FFDE49EFCC3E5159D0F
:10021000EC120E024066120DFD5061120E0BE4123C
:100220000E32120E7A6003020325120DE6E51485E4
:1002300015F012048F12178E120DE6E0FCA3E0C336
:10024000120E1A4009120DDBE475F001802112171D
:100250008EC3E49FFFE49EFE120DE6E0FCA3E0C324
:10026000120E1A4003020325120DDB74FFF5F01283
:10027000048F120DE6E4F0A3F0020325900074E071
:10028000FFFD3395E0FCC3E49DFDE49CFCC3E51554
:100290009DEC120E025057120E0B120E30E4F012AB
:1002A0000E0BE0FE75F00A84E5F07034EEC3946442
:1002B000400E120E0BE4F0D20190009304F0802067
:1002C000120DDBC083C082120EC2A2E713FF33956A
:1002D000E0FEC3ED9FFFEC9ED082D083F0A3EFF051
:1002E0009000CCE06513703D74FFF0020325120E00
:1002F000D0120DFD402F120E0B120E7A7027120E27
:1003000033120E30E0B4201D120E33E4F09000746E
:10031000E0A2E713A2E713FF3395E0FE120DDBEE38
:100320008FF012048F120E594D4E4F70030203C40A
:10033000E51AAE197802CEA2E713CE13D8F8FFC3A0
:10034000E51A9FFFE5199EFEC3120DFE506F120EB7
:1003500024E004F01217DA8F18E4F517E517C395B7
:1003600058500F120DF1E0C3940140020516051715
:1003700080EAE516C394034006900000E0F51812E9
:100380000E24E0C395184072120E24E4F0AF57AE6D
:1003900056AD55AC541204F4E5535FFFE5525EFED2
:1003A000E5515DFDE5505C8F538E528D51F55074D3
:1003B0003D2513F582E43400F583E4F022120E2487
:1003C000E014F022743D2513120DF5E4F0E5581405
:1003D000651370269000D3E0C39558401DE4F517CF
:1003E000E517C39558500D120DF1E0600375160125
:0A03F000051780ECE5167002C2004C
:0103FA0022E0
:10167600E4FFEFC39558501575F002EF120DD51221
:0D1686000EC2120E41ECF0A3EDF00F80E556
:011693002234
:020EDA008F1473
:100EDC00EF120DC2120EC9F516EC9EF515AF1412D9
:100EEC001590AD07AC06D3E5169DEC120E50500BC9
:100EFC00C3E49DFFE49C120E4A500B120DD0E0FE91
:100F0C00A3E0FF020F82ECA2E713FEED13FFD31256
:100F1C000E4C500BC3E49FFFE49E120E4A50271256
:100F2C000E3FE0FCA3E0FDECC313FEED13FFC3ED9D
:100F3C009FFDEC9EFC120DD0E0C313FEA3E0132D1D
:100F4C00FFEC3EFE8030120E3FE0FCA3E0FDAE0451
:100F5C007803CEC313CE13D8F9FFC3ED9FFDEC9EDF
:100F6C00FC120DD0E0FEA3E07803CEC313CE13D851
:100F7C00F92DFFEC3EFE120E3FEEF0A3EFF0E51460
:080F8C00120DC2EEF0A3EFF01C
:010F9400223A
:03180C00A2012214
:03180F00D20122E1
:10133F00E4FFEFC39558502B743D2F120DF5E4F0D9
:10134F0074652F120E0FE4F074892F120E28E4F03B
:10135F00EF120DE8E4F0A3F074472F120E72E4F0D1
:10136F000F80CFE4F553F552F551F5509000CC7442
:0B137F00FFF0E49000CFF0A3F0C201EB
:01138A002240
:020CA3008F12AE
:100CA5009000D1E0C394034035E4F0900093E070E8
:100CB50022F513E513C39558501975F002E5131283
:100CC5000E44120E9EE513120DE0EEF0A3EFF005B3
:100CD5001380E012133FC201E4900093F0229000CC
:100CE500CBE004F0E0B51208121676E49000CCF0E3
:100CF5009000CBE0D395125003020DC1E4F513E546
:100D050013C39558507A75F002E513120E44120E6E
:100D15009EE513120DD5120EC9FFEC9EAD07FC9092
:100D25000093E07029120EB57802C333CE33CED8C6
:100D3500F9120E174040E49BFFE49AFEEF7802C3D8
:100D450033CE33CED8F9C3120E18502A8032120E84
:100D5500B57803C333CE33CED8F9120E174017E456
:100D65009BFFE49AFEEF7803C333CE33CED8F9FF69
:100D7500C3120E19400AAF13120EDA0513020D0441
:100D8500E513B558069000CCE004F0E51275F008BF
:100D95009000CB120EA74024E4F0C2009000D1E0F1
:100DA50004F0E51275F0049000CC120EA7400DE496
:0C0DB5009000D1F01216B012133FC201E2
:010DC100220F
:0717E20043A12053A2DF2206
:10171100758E07758911758A18758CFCC28CD2A9D2
:03172100D28C2245
:03000B000213D607
:1013D600C0E0C0F0C083C082C0D075D000C000C0DD
:1013E60001C002C003C004C005C006C007758A1844
:1013F600758CFC1216CB1215E612138BD007D0068D
:10140600D005D004D003D002D001D000D0D0D082F5
:07141600D083D0F0D0E032DA
:03001B000217E9E0
:0717E900758B9C758DFF322A
:03002B00021812A6
:03181200C2CF3210
:1012A1008D828C835391F375920C4387807598508E
:1012B100E4F5C8758E03758920FCFDFE7B407A42FA
:1012C100790FF81204A5C006C007AE83AF82AB0741
:1012D100AA06E4F9F8D007D00612141DE47B10FA2F
:1012E100F9F812141DEFF404F58DD28ED2ACD2AF01
:0112F10022DA
:0A17A3008F99E56260FCE4F5622214
:061535008B138A148915D6
:10153B00E4F560C3E5609407748094805017AB1397
:10154B00AA14A9158560827583001203FBFF12177D
:07155B00A3056080DE7F01A3
:011562002266
:081461008F088D098A0A8B0B2C
:101469007E007F077D007B007A00790C1205D88504
:10147900080C85090DE50AF50EE50BF50FE50C25B8
:101489000D250E250FF51075110D75120A7B007AC1
:0614990000790C0215357C
:0300230002175A67
:10175A00309905C299756201309805C29875610180
:01176A00324C
:1012FA000131FF603700940000000000010203047E
:10130A0005060708090A0B0C0D0E0F10111213140B
:10131A0015161718191A1B1C1D1E1F2021222324FB
:0E132A0025262728292A2B2C2D2E2F30313254
:100F9500E4F509F50A7F01120760EC4D4E4F600537
:100FA500050A7509017F02120760EC4D4E4F600579
:100FB500050A7509027F03120760EC4D4E4F600567
:100FC500050A7509037F04120760EC4D4E4F600555
:100FD500050A7509047F05120760EC4D4E4F600543
:100FE500050A7509057F06120760EC4D4E4F600531
:100FF500050A7509067F07120760EC4D4E4F60051F
:10100500050A7509077F08120760EC4D4E4F60050C
:10101500050A7509087F09120760EC4D4E4F6005FA
:10102500050A7509097F0A120760EC4D4E4F6005E8
:10103500050A75090AD3E50A940174809480400372
:051045007509FFAF0971
:01104A002283
:101748001211DBE4F52CFB7A007937FFFEFDFC0271
:021758001694E5
:0208C8008F0897
:1008CA007E00EF701DAD3FFCED640C6005ED64AA7F
:1008DA007005E4F5368007ED4C6003E4F53FE4F576
:1008EA002322EF64024E7021E566701DE53660032F
:1008FA00020A1D7536010521E52130E006753F0C17
:10090A00020026753FAA02001EE50864077007E583
:10091A006670030215BCAF087E00EF640B7011E528
:10092A0066700DE53F64017003020A1D753F0122DE
:10093A00EF64104E7011E566700DE53F64027003B6
:10094A00020A1D753F0222E50864157011E56670FA
:10095A000DE53F64037003020A1D753F0322AF08C9
:10096A007E00EF641A7011E566700DE53F6404704D
:10097A0003020A1D753F0422EF641F4E7011E566DB
:10098A00700DE53F64057003020A1D753F0522E5F7
:10099A00086424700EE566700AE53F6406607475A3
:1009AA003F0622AF087E00EF6429700EE566700AE2
:1009BA00E53F6407605D753F0722EF642E4E700EB7
:1009CA00E566700AE53F64086049753F0822E50854
:1009DA006409700EE566700AE53F64096035753F83
:1009EA000922E5086404702BE523702775230105A5
:1009FA0022121777E52230E004E4F56322AF3F7E46
:100A0A0000EF640C700475636422EF64AA4E7003ED
:030A1A0075630FF2
:010A1D0022B6
:100A1E00900071E030E711547FF0120B738F358E1A
:100A2E00348D338C321218097B007A007937121507
:100A3E0005EC4D4E4F70037FFF227B007A00793715
:100A4E007F647E007D007C00121694120F958F0835
:100A5E00EFF470037FFF22E52C14603014606C14E9
:100A6E007003020B2324036003020B6DE508700272
:100A7E00FF228508317B007A0079247F647E007D19
:100A8E00007C00121694752C01020B70E53165087E
:100A9E006003020B6D7B007A007924121505EC4D74
:100AAE004E4F7003020B707B007A0079247F107E0C
:100ABE00277D007C00121694752C02E53175F00529
:100ACE00A42494F582E43400020B68E531650860D5
:100ADE0012E4F52CE53175F005A42495F582E43485
:100AEE000080777B007A007924121505EC4D4E4F6D
:100AFE0060707B007A0079247F647E007D007C002C
:100B0E00121694752C03E53175F005A42496F58222
:100B1E00E434008045E53165086012E4F52CE531DA
:100B2E0075F005A42498F582E43400802D7B007ABC
:100B3E00007924121505EC4D4E4F60267B007A008D
:100B4E0079247F647E007D007C00121694E5317559
:100B5E00F005A42497F582E43400F583E0FF22E447
:040B6E00F52C7FFFE4
:010B72002260
:0C176B00EA494B60068B2E8A2F89302241
:1016E500120A1E8F2DE52F4530452E600985308263
:0716F500852F831205D622A8
:100760008F0BEF6401701D7F08FEFDFCAB35AA34D2
:10077000A933A832C312050170057F080208C4E43A
:10078000FF0208C4E50B6402701D7F10FEFDFCAB88
:1007900035AA34A933A832C312050170057F1002AF
:1007A00008C4E4FF0208C4E50B6403701EFF7E105A
:1007B000FDFCAB35AA34A933A832C312050170067B
:1007C000FF7E10FDFC22E4FF0208C4E50B64047008
:1007D0001EFF7E02FDFCAB35AA34A933A832C3123A
:1007E00005017006FF7E02FDFC22E4FF0208C4E55D
:1007F0000B6405701EFF7E01FDFCAB35AA34A933E6
:10080000A832C31205017006FF7E01FDFC22E4FF41
:100810000208C4E50B6406701D7F20FEFDFCAB35AD
:10082000AA34A933A832C312050170057F2002083B
:10083000C4E4FF0208C4E50B6407701DFFFE7D08D9
:10084000FCAB35AA34A933A832C31205017006FFE8
:10085000FE7D08FC22E4FF806BE50B6408701DFF41
:10086000FE7D04FCAB35AA34A933A832C3120501BE
:100870007006FFFE7D04FC22E4FF8048E50B64095E
:10088000701DFF7E80FDFCAB35AA34A933A832C3AE
:100890001205017006FF7E80FDFC22E4FF8025E545
:1008A0000B640A701DFF7E40FDFCAB35AA34A933F2
:1008B000A832C31205017006FF7E40FDFC22E4FF52
:0808C0008002E4FFFEFDFC22B2
:0717F000439A01539BFE2206
:04001E0075630F22D5
:040026007563642278
:1015E6000565E56570020564D39464E5649400407E
:1015F60005E4F564F565D3E5659563E56494004017
:0716060003C28022D2802202
:0A17AD00439A06539BF97580002251
:1015BC000559E55930E00E5380F9438002755D0101
:1015CC00E4F55A800C5380F9438004E4F55D755AB8
:0915DC0001F55EF55FF55BF55CBD
:0115E50022E3
:10138B00E55D6021055FE55F7002055ED394E0E5E6
:10139B005E942E4010E4F55EF55FF55BF55C5380D3
:1013AB00F9F55DF55AE55A6021055CE55C700205BF
:1013BB005BD394E0E55B942E4010E4F55EF55FF5AE
:0B13CB005BF55C5380F9F55DF55A22DC
:0717F70043A12053A2DF22F1
:0C177700E566700475660122E4F5662248
:0417FE0043CF1022A3
:0418020043CF10229E
:06133800041C000000008F
:0A17B700E4F51FF51EF51DF51C22D8
:1016CB00AF1FAE1EAD1DAC1CEF2401F51FE43EF5A4
:0A16DB001EE43DF51DE43CF51C2261
:0917C100AF1FAE1EAD1DAC1C22D1
:101694008F0C8E0B8D0A8C091217C1120568AF0CC2
:0C16A400AE0BAD0AAC09900004020582F8
:101505008B098A0A890B9000041205381205A6C3B7
:10151500E51F9BFBE51E9AFAE51D99F9E51C98F870
:10152500C3120501E440047F018001FFFEFDFC229A
:1010E900020003E493A3F8E493A34003F68001F21A
:1010F90008DFF48029E493A3F85407240CC8C33308
:10110900C4540F4420C8834004F456800146F6DFD6
:10111900E4800B01020408102040809012F2E47E62
:10112900019360BCA3FF543F30E509541FFEE493CB
:10113900A360010ECF54C025E060A840B8E493A392
:10114900FAE493A3F8E493A3C8C582C8CAC583CABD
:10115900F0A3C8C582C8CAC583CADFE9DEE780BE75
:01133E0000AE
:1003FB00BB010CE58229F582E5833AF583E02250B7
:10040B0006E92582F8E622BBFE06E92582F8E22200
:0D041B00E58229F582E5833AF583E493221A
:10042800EF8DF0A4A8F0CF8CF0A428CE8DF0A42EE8
:02043800FE22A2
:10043A00BC000BBE0029EF8DF084FFADF022E4CCA6
:10044A00F875F008EF2FFFEE33FEEC33FCEE9DEC6F
:10045A00984005FCEE9DFE0FD5F0E9E4CEFD22EDB5
:10046A00F8F5F0EE8420D21CFEADF075F008EF2FFF
:10047A00FFED33FD4007985006D5F0F222C398FDF0
:05048A000FD5F0EA228D
:10048F00C5F0F8A3E028F0C5F0F8E58215827002F8
:06049F001583E038F02295
:1004A500E88FF0A4CC8BF0A42CFCE98EF0A42CFCF6
:1004B5008AF0EDA42CFCEA8EF0A4CDA8F08BF0A474
:1004C5002DCC3825F0FDE98FF0A42CCD35F0FCEBD3
:1004D5008EF0A4FEA9F0EB8FF0A4CFC5F02ECD3998
:0F04E500FEE43CFCEAA42DCE35F0FDE43CFC2205
:10141D00C2D5E830E70FB2D5E4C39BFBE49AFAE4FA
:10142D0099F9E498F8EC30E717B2D5121453120677
:10143D0040E4C39BFBE49AFAE499F9E498F880033D
:10144D0012064030D50DE4C39FFFE49EFEE49DFDE2
:04145D00E49CFC22ED
:0D04F400CFF4CFCEF4CECDF4CDCCF4CC229D
:10050100EB9FF5F0EA9E42F0E99D42F0E89C45F050
:0105110022C7
:10051200E8600FECC313FCED13FDEE13FEEF13FFC7
:03052200D8F122EB
:10052500E8600FEFC333FFEE33FEED33FDEC33FC34
:03053500D8F122D8
:10053800BB010DE58229F582E5833AF5830206DEE3
:100548005007E92582F80206D2BBFE07E92582F8A2
:100558000206EAE58229F582E5833AF5830206F682
:10056800BB010789828A830207485005E9F8020718
:0A0578003CBBFE05E9F8020754221F
:10058200BB010DE58229F582E5833AF5830207482E
:100592005007E92582F802073CBBFE07E92582F8ED
:0405A20002075422D6
:1005A600BB010789828A830207135005E9F802070F
:1005B60006BBFE05E9F802071F89828A8302072C1B
:0C05C600A42582F582E5F03583F5832240
:0605D2008A838982E473B4
:1005D800EF4E6012EF60010EEDBB010B89828A833A
:1005E800F0A3DFFCDEFA2289F05007F709DFFCA947
:0C05F800F022BBFEFCF309DFFCA9F0229E
:1006040075F008758200EF2FFFEE33FECD33CDCCAD
:1006140033CCC58233C5829BED9AEC99E582984030
:100624000CF582EE9BFEED9AFDEC99FC0FD5F0D60D
:10063400E4CEFBE4CDFAE4CCF9A88222B800C1B937
:100644000059BA002DEC8BF084CFCECDFCE5F0CB75
:10065400F97818EF2FFFEE33FEED33FDEC33FCEBAE
:1006640033FB10D703994004EB99FB0FD8E5E4F969
:10067400FA227818EF2FFFEE33FEED33FDEC33FC56
:10068400C933C910D7059BE99A4007EC9BFCE99A4A
:10069400F90FD8E0E4C9FAE4CCFB2275F010EF2F8F
:1006A400FFEE33FEED33FDCC33CCC833C810D7078F
:1006B4009BEC9AE899400AED9BFDEC9AFCE899F8CA
:0E06C4000FD5F0DAE4CDFBE4CCFAE4C8F9225D
:0C06D200E6FC08E6FD08E6FE08E6FF2254
:0C06DE00E0FCA3E0FDA3E0FEA3E0FF228F
:0C06EA00E2FC08E2FD08E2FE08E2FF224C
:1006F600E493FC740193FD740293FE740393FF224A
:0D070600E6FB08E6F908E6FA08E6CBF82263
:0C071300E0F8A3E0F9A3E0FAA3E0FB2269
:0D071F00E2FB08E2F908E2FA08E2CBF8225A
:10072C00E493F8740193F9740293FA740393FB2223
:0C073C00ECF608EDF608EEF608EFF622E9
:0C074800ECF0A3EDF0A3EEF0A3EFF02224
:0C075400ECF208EDF208EEF208EFF222E1
:00000001FF
