:0300000002101CCF
:0C101C00787FE4F6D8FD75816302106354
:080003001214C112140780FB66
:1014C1001216EA12172312001E1216E01217151235
:1014D100172A1216401216777BFF7A0D793B1216E6
:0A14E100AA7D807C257F020211E045
:101407001216147B007A00793D121437EC4D4E4FBB
:10141700601D7B007A00793D7FBC7E027D007C00E9
:101427001215C3E53CFB7A007DFB7FFA1213962267
:1010A8000000000000000005000A0BB800C800643A
:1010B8000002000000000004FFFFFFFFFFFFFFFF2A
:1010C8000014022A04081705010E022A040815054F
:1010D80000E8022A04080F0500DC022A04081105AA
:1010E80000E0022A0408130500E5022A0408130593
:1010F800010F022A0408130500E0022A0408130558
:1011080000E2022A0408110500D6022A04081D0577
:0211180000CF06
:0413530041009300C2
:0B16B6009010B2E493FE740193FF2239
:0B16C1009010B6E493FE740193FF222A
:0816FD009010B0740193FF226C
:031731007F012213
:10149500AD07ED75F008A424D0F582E43410F5838A
:1014A500E493FEED75F008A424D1F582E43410F53B
:0C14B50083E4937C002400FFEC3EFE2248
:10165300EF75F008A424CDF582E43410F583E49308
:02166300FF2264
:081705009010AA740193FF2269
:10166500EF75F008A424CEF582E43410F583E493F5
:02167500FF2252
:08170D00900000E0C313FF226D
:0A16CC00900000E075F00384FF2297
:10162B00121495EF7803C333CE33CED8F9FF7C0079
:05163B007D0A02043AE3
:10118B00E4FBFAF50BF50AF509F508750B38750A4A
:10119B00D375090CF508EBC3941774809480503207
:1011AB00AF0BAE0AAD09AC0878011205128F0B8E8E
:1011BB000A8D098C0830D717741F2AF582E4340086
:1011CB00F583EBF00AEAC3940A7480948050030B06
:0411DB0080C48A55ED
:0111DF0022ED
:10002E00EF1460121460141460111460152404701F
:10003E00199010CA80089010CB80039010CCE493D6
:0D004E00FF229010BC740193FF227F00225E
:101586009010AE740193900000F09010C87401930F
:0F159600900074F012118BE4900072F0A3F02219
:1008B500E4F509F50DF50CF50BF50AF511F510F54F
:1008C5000FF50E12173750030209D11215618F0D5E
:1008D5008E0C8D0B8C0AE4FBEBC395555047AF0D81
:1008E500AE0CAD0BAC0A78011205128F0D8E0C8D76
:1008F5000B8C0A30D72CE47F01FEFDFC741F2BF511
:1009050082E43400F583E0F9F8120525E5114FF589
:1009150011E5104EF510E50F4DF50FE50E4CF50EF2
:1009250005090B80B3AF097E00C3EF940274809470
:10093500804018D200EF940374809480400512170C
:100945003A8008121705EF6002C20020002CE4FF70
:10095500FEFDFCAB11AA10A90FA80EC3120501607C
:1009650010900073E004F07006900072E004F080CF
:1009750020E4900072F0A3F08017900070E004F07E
:10098500700690006FE004F0E4F511F510F50FF531
:100995000E1216B6D3900073E09F900072E09E4051
:1009A5000A12173AE4900072F0A3F0D3900070E0B9
:1009B500942C90006FE09401401D12173A9000931B
:1009C5007401F0E490006FF0A3F0800B9010B8E490
:0F09D500740193FF1209E5AF11AE10AD0FAC0E18
:0109E40022F0
:041357004100C7008A
:100C230075F0029000751205C6E0FEA3E0FFE5141F
:100C330075F0029000290205C6E51375F0029000D5
:100C4300010205C6E51375F0029000510205C67452
:100C53003D2517F582E43400F58322D3E5159FEE95
:100C63006480F8E5146480982274652513F582E4A2
:100C73003400F58322D3FFED9FEE6480F8EC6480AB
:100C8300982274892513F582E43400F58322E00465
:100C9300F074152513F582E43400F58322E5147509
:100CA300F0029000750205C6FEC3E5169FEE648050
:100CB300F8E51564809822E5505554FFE54F5553E8
:100CC300FEE54E5552FDE54D5551FC227447251363
:100CD300F582E43400F58322E4F0FFFEFDFCAB5023
:100CE300AA4FA94EA84DC30205017E009000C3E0A0
:100CF300FCA3E0FD1204288EE78FE622E0FEA3E0CA
:100D0300FF75F00222A4FFE0C39FE5F06480F8744E
:100D1300809822900074E0FB3395E0FAEBAE022258
:100D2300E0FCA3E0FDEF22E0FCA3E0C39F229000E0
:080D330074E0FF3395E0FE229D
:0C000E00EF4E6007EF1F70F81E80F52217
:03005B00020F8A07
:100F8A00C0E0C0F0C083C082C0D075D000C000C02D
:0D0F9A0001C002C003C004C005C006C007AE
:100FA700C2029000C8E0120C33E5E5F0A3E5E4F0D7
:100FB7009000C8E004F0E0C39555400BE4F09000C2
:100FC70071E04480F08002D2029000C8E0FF121660
:100FD70053120CED9000C8E0FF121665E5E254804D
:100FE7004FF5E29000C8E0241FF582E43400F58352
:0A0FF700E04480F5E8300202D2EE7B
:10100100D007D006D005D004D003D002D001D00043
:0B101100D0D0D082D083D0F0D0E032ED
:10111A00D2AF75E880C201E49000C8F0900071F087
:10112A00121586E4FF12002EEF2401FDE433FC7E43
:10113A000B7FB812043A9000C3EEF0A3EFF0E4FF7D
:10114A00121653120CED7F0212002EEFC454F0FE59
:10115A00C006E4FF12002ED0E02FF5E17F03120053
:10116A002EE5E254804FF5E27F0112002E8FE31242
:10117A00123143A91090001FE042E81213D402155D
:01118A00DF85
:03173400D2EE22D0
:10153C00E4FD900071E0547FF0D2EE900071E02059
:10154C00E7127FE87E0312000E43CF100DEDC3941B
:04155C003240E8220F
:011560002268
:1013D40075081012153CAF081508EF70F61215A524
:1013E4001216FD8F0812153CE4F509E509C395555D
:1013F4005009AF09120E39050980F0AF081508EF3E
:0214040070E393
:0114060022C3
:1015DF00E4FFEFC395555012EF120C33120D231287
:0A15EF000C3EECF0A3EDF00F80E8D5
:0115F90022CF
:10156100E49000C9F0F512E512C39555500EAF1283
:10157100120E39AF1212005E051280EBAF50AE4F62
:04158100AD4EAC4D72
:011585002243
:02005E008F13FE
:10006000E4F51B75F002EF120C41120CFFE51312C0
:100070000C36120D2AF515EC9EF514E47F01FEFDF9
:10008000FCA913A8011205258F548E538D528C5153
:10009000AF131214958E198F1AC3E515951AE51929
:1000A000120C6340057516018003E4F516E516642D
:1000B0000160030201E5743D2513120C56E0C39460
:1000C000FA500A743D2513120C56E004F0120CBAD3
:1000D000E4FBFAF9F8C312050160030201C89000BD
:1000E00000E0F518121731EF6028E4F516F517E572
:1000F00017C39555500F120C52E0C39401400205EE
:1001000016051780EAE516C394034006740F2518F8
:10011000F518743D2513120C56E0C39518500302D0
:1001200001C8E4F516121705EF7051F517E517C36E
:100130009555501AE513651760101216CC120C5223
:10014000E0C39F40057516018004051780DF121774
:1001500031EF7052E516704EF517E517C3955550FF
:1001600045E513651760111216CC74472517120C5C
:10017000D3E0C39F4002802B051780DE121731EFBA
:100180007024F518F517E517C39555500F120C524A
:10019000E0C3940240020518051780EAE518C394ED
:1001A000034003751601E516B40102D200E550457F
:1001B00054FFE54F4553FEE54E4552FDE54D455193
:1001C0008F508E4F8D4EF54D120C6CE4F0120C8555
:1001D000E4F0120C47E4F0A3F074152513F582E463
:1001E00034000203B8AF1312162B120C5E40081233
:1001F0000CCFE004F0800B9000C9E004F0120CCFAB
:10020000E4F0120D31C3E49FFDE49EFCC3E5159DAF
:10021000EC120C634066120C5E5061120C6CE4121E
:100220000C93120CDB6003020325120C47E51485C6
:1002300015F012048F1216C1120C47E0FCA3E0C3A4
:10024000120C7B4009120C3CE475F001802112165F
:10025000C1C3E49FFFE49EFE120C47E0FCA3E0C391
:10026000120C7B4003020325120C3C74FFF5F012C4
:10027000048F120C47E4F0A3F0020325900074E011
:10028000FFFD3395E0FCC3E49DFDE49CFCC3E51554
:100290009DEC120C635057120C6C120C91E4F0128E
:1002A0000C6CE0FE75F00A84E5F07034EEC39464E3
:1002B000400E120C6CE4F0D20190009304F0802008
:1002C000120C3CC083C082120D23A2E713FF3395AA
:1002D000E0FEC3ED9FFFEC9ED082D083F0A3EFF051
:1002E0009000C2E06513703D74FFF0020325120D0B
:1002F00031120C5E402F120C6C120CDB7027120CAA
:1003000094120C91E0B4201D120C94E4F09000744F
:10031000E0A2E713A2E713FF3395E0FE120C3CEED8
:100320008FF012048F120CBA4D4E4F70030203C4AB
:10033000E51AAE197802CEA2E713CE13D8F8FFC3A0
:10034000E51A9FFFE5199EFEC3120C5F506F120C59
:1003500085E004F012170D8F18E4F517E517C39523
:1003600055500F120C52E0C39401400205160517B8
:1003700080EAE516C394034006900000E0F51812E9
:100380000C85E0C395184072120C85E4F0AF54AEB2
:1003900053AD52AC511204F4E5505FFFE54F5EFEE1
:1003A000E54E5DFDE54D5C8F508E4F8D4EF54D74E5
:1003B0003D2513F582E43400F583E4F022120C8528
:1003C000E014F022743D2513120C56E4F0E55514A8
:1003D000651370269000C9E0C39555401DE4F517DC
:1003E000E517C39555500D120C52E06003751601C8
:0A03F000051780ECE5167002C2004C
:0103FA0022E0
:1015A500E4FFEFC39555501575F002EF120C361296
:0D15B5000D23120CA2ECF0A3EDF00F80E569
:0115C2002206
:020E39008F1414
:100E3B00EF120C23120D2AF516EC9EF515AF1412BA
:100E4B001495AD07AC06D3E5169DEC120CB1500B07
:100E5B00C3E49DFFE49C120CAB500B120C31E0FE73
:100E6B00A3E0FF020EE1ECA2E713FEED13FFD3129A
:100E7B000CAD500BC3E49FFFE49E120CAB5027123A
:100E8B000CA0E0FCA3E0FDECC313FEED13FFC3EDE0
:100E9B009FFDEC9EFC120C31E0C313FEA3E0132D5F
:100EAB00FFEC3EFE8030120CA0E0FCA3E0FDAE0494
:100EBB007803CEC313CE13D8F9FFC3ED9FFDEC9E81
:100ECB00FC120C31E0FEA3E07803CEC313CE13D893
:100EDB00F92DFFEC3EFE120CA0EEF0A3EFF0E514A3
:080EEB00120C23EEF0A3EFF05E
:010EF30022DC
:03173700A20122EA
:03173A00D20122B7
:10123100E4FFEFC39555502B743D2F120C56E4F08B
:1012410074652F120C70E4F074892F120C89E4F08C
:10125100EF120C49E4F0A3F074472F120CD3E4F021
:101261000F80CFE4F550F54FF54EF54D9000C27467
:0B127100FFF0E49000C5F0A3F0C20104
:01127C00224F
:0209E5008F126F
:1009E7009000C7E0C394034035E4F0900093E070B3
:1009F70022F513E513C39555501975F002E5131247
:100A07000CA5120CFFE513120C41EEF0A3EFF00555
:100A17001380E0121231C201E4900093F02290009B
:100A2700C1E004F0E0B512081215A5E49000C2F089
:100A37009000C1E0D395125003020B03E4F513E5D0
:100A470013C39555507A75F002E513120CA5120CD5
:100A5700FFE513120C36120D2AFFEC9EAD07FC9032
:100A67000093E07029120D167802C333CE33CED827
:100A7700F9120C784040E49BFFE49AFEEF7802C33A
:100A870033CE33CED8F9C3120C79502A8032120DE7
:100A9700167803C333CE33CED8F9120C784017E457
:100AA7009BFFE49AFEEF7803C333CE33CED8F9FF2A
:100AB700C3120C7A400AAF13120E390513020A4605
:100AC700E513B555069000C2E004F0E51275F0088D
:100AD7009000C1120D084024E4F0C2009000C7E066
:100AE70004F0E51275F0049000C2120D08400DE401
:0C0AF7009000C7F01215DF121231C2018E
:010B030022CF
:0717150043A12053A2DF22D3
:10164000758E07758911758A18758CFCC28CD2A9A4
:03165000D28C2217
:03000B000212C816
:1012C800C0E0C0F0C083C082C0D075D000C000C0EC
:1012D80001C002C003C004C005C006C007758A1853
:1012E800758CFC1215FA12151512127DD007D0064E
:1012F800D005D004D003D002D001D000D0D0D08205
:07130800D083D0F0D0E032E9
:03001B0002171CAD
:07171C00758B9C758DFF32F7
:03002B0002173D7C
:03173D00C2CF32E6
:1011E0008D828C835391F375920C43878075985050
:1011F000E4F5C8758E03758920FCFDFE7B407A42BC
:10120000790FF81204A5C006C007AE83AF82AB0702
:10121000AA06E4F9F8D007D00612130FE47B10FAFF
:10122000F9F812130FEFF404F58DD28ED2ACD2AFD1
:01123000229B
:0A16D6008F99E55F60FCE4F55F22E8
:061467008B138A148915A5
:10146D00E4F55DC3E55D9407748094805017AB136C
:10147D00AA14A915855D827583001203FBFF121650
:07148D00D6055D80DE7F0142
:011494002235
:081396008F088D098A0A8B0BF8
:10139E007E007F077D007B007A00790C1205D885D0
:1013AE00080C85090DE50AF50EE50BF50FE50C2584
:1013BE000D250E250FF51075110D75120A7B007A8D
:0613CE0000790C02146717
:0300230002168939
:10168900309905C299755F01309805C298755E0158
:01169900321E
:10135B00012FFF602D009400000000000102030428
:10136B0005060708090A0B0C0D0E0F1011121314AA
:10137B0015161718191A1B1C1D1E1F20212223249A
:04138B0025262728C4
:100EF400E4F509F50A7F01120B04EC4D4E4F600531
:100F0400050A7509017F02120B04EC4D4E4F600572
:100F1400050A7509027F03120B04EC4D4E4F600560
:100F2400050A7509037F04120B04EC4D4E4F60054E
:100F3400050A7509047F05120B04EC4D4E4F60053C
:100F4400050A7509057F06120B04EC4D4E4F60052A
:100F5400050A7509067F07120B04EC4D4E4F600518
:100F6400050A7509077F08120B04EC4D4E4F600506
:100F7400050A750908D3E50A940174809480400336
:050F84007509FFAF0933
:010F89002245
:1016770012111AE4F52AFB7A007934FFFEFDFC0209
:0216870015C389
:020D3B008F081F
:100D3D007E00EF700DE53C64557003020E38753C76
:100D4D005522EF64024E701DE5637019E53C640198
:100D5D007003020E38753C010521E52130E00302D8
:100D6D00001E020026E50864067013E563700FE5AA
:100D7D003C64027003020E38753C020214EBAF089E
:100D8D007E00EF640B7011E563700DE53C6403703C
:100D9D0003020E38753C0322EF64104E7011E563AB
:100DAD00700DE53C64047003020E38753C0422E5B9
:100DBD00086415700EE563700AE53C6405606C759A
:100DCD003C0522AF087E00EF641A700EE563700AD1
:100DDD00E53C64066055753C0622EF641F4E700EAF
:100DED00E563700AE53C64076041753C0722E50840
:100DFD006425700EE563700AE53C6408602D753C52
:100E0D000822AF087E00EF6404700EE563700AE5FA
:100E1D003C64886016753C8822EF64274E700CE5A3
:0B0E2D003C64996006753C9912169A0F
:010E38002297
:10076000900071E030E711547FF01208B58F338E9E
:10077000328D318C301217347B007A0079341214A8
:1007800037EC4D4E4F70037FFF227B007A007934A7
:100790007F647E007D007C001215C3120EF48F086A
:1007A000EFF470037FFF22E52A14603014606C14AC
:1007B0007003020865240360030208AFE5087002B5
:1007C000FF2285082F7B007A0079227F647E007DDE
:1007D000007C001215C3752A010208B2E52F6508D6
:1007E00060030208AF7B007A007922121437EC4DC7
:1007F0004E4F70030208B27B007A0079227F107E90
:10080000277D007C001215C3752A02E52F75F005BF
:10081000A42494F582E434000208AAE52F65086058
:1008200012E4F52AE52F75F005A42495F582E43449
:100830000080777B007A007922121437EC4D4E4FFE
:1008400060707B007A0079227F647E007D007C00EE
:100850001215C3752A03E52F75F005A42496F582B9
:10086000E434008045E52F65086012E4F52AE52FA1
:1008700075F005A42498F582E43400802D7B007A7D
:10088000007922121437EC4D4E4F60267B007A001F
:1008900079227F647E007D007C001215C3E52F75F0
:1008A000F005A42497F582E43400F583E0FF22E408
:0408B000F52A7FFFA7
:0108B4002221
:0C16AA00EA494B60068B2C8A2D892E2209
:101614001207608F2BE52D452E452C6009852E82FF
:07162400852D831205D6227B
:100B04008F0BEF6401701D7F08FEFDFCAB33AA322E
:100B1400A931A830C312050170057F08020C1FE437
:100B2400FF020C1FE50B6402701D7F10FEFDFCAB81
:100B340033AA32A931A830C312050170057F10020F
:100B44000C1FE4FF020C1FE50B6403701EFF7E10F4
:100B5400FDFCAB33AA32A931A830C31205017006DB
:100B6400FF7E10FDFC22E4FF020C1FE50B64047001
:100B74001EFF7E02FDFCAB33AA32A931A830C3129A
:100B840005017006FF7E02FDFC22E4FF020C1FE556
:100B94000B6405701DFF7E01FDFCAB33AA32A93145
:100BA400A830C31205017006FF7E01FDFC22E4FF9C
:100BB4008069E50B6406701B7F20FEFDFCAB33AA45
:100BC40032A931A830C312050170047F20804CE49F
:100BD400FF8048E50B6407701DFFFE7D08FCAB3306
:100BE400AA32A931A830C31205017006FFFE7D08A0
:100BF400FC22E4FF8025E50B6408701DFF7E40FDA8
:100C0400FCAB33AA32A931A830C31205017006FF28
:0F0C14007E40FDFC22E4FF8002E4FFFEFDFC2297
:07172300439A01539BFE22D3
:04001E0075600F22D8
:04002600756064227B
:101515000562E56270020561D39464E5619400405B
:1015250005E4F561F562D3E5629560E561940040F7
:0715350003C28022D28022D4
:0A16E000439A06539BF9758000221F
:1014EB000556E55630E00E5380F9438002755A01DC
:1014FB00E4F557800C5380F9438004E4F55A755793
:09150B0001F55BF55CF558F5599A
:0115140022B4
:10127D00E55A6021055CE55C7002055BD39420E5C1
:10128D005B944E4010E4F55BF55CF558F5595380D1
:10129D00F9F55AF557E55760210559E559700205DD
:1012AD0058D39420E558944E4010E4F55BF55CF569
:0B12BD0058F5595380F9F55AF55722F7
:07172A0043A12053A2DF22BE
:10169A00E5637006756301D2A522E4F563C2A5224B
:06138F00041C0000000038
:0A16EA00E4F51FF51EF51DF51C22A6
:1015FA00AF1FAE1EAD1DAC1CEF2401F51FE43EF576
:0A160A001EE43DF51DE43CF51C2232
:0916F400AF1FAE1EAD1DAC1C229F
:1015C3008F0C8E0B8D0A8C091216F4120568AF0C62
:0C15D300AE0BAD0AAC09900004020582CA
:101437008B098A0A890B9000041205381205A6C386
:10144700E51F9BFBE51E9AFAE51D99F9E51C98F83F
:10145700C3120501E440047F018001FFFEFDFC2269
:10102800020003E493A3F8E493A34003F68001F2DB
:1010380008DFF48029E493A3F85407240CC8C333C9
:10104800C4540F4420C8834004F456800146F6DF98
:10105800E4800B0102040810204080901353E47EC2
:10106800019360BCA3FF543F30E509541FFEE4938D
:10107800A360010ECF54C025E060A840B8E493A354
:10108800FAE493A3F8E493A3C8C582C8CAC583CA7F
:10109800F0A3C8C582C8CAC583CADFE9DEE780BE37
:011395000057
:1003FB00BB010CE58229F582E5833AF583E02250B7
:10040B0006E92582F8E622BBFE06E92582F8E22200
:0D041B00E58229F582E5833AF583E493221A
:10042800EF8DF0A4A8F0CF8CF0A428CE8DF0A42EE8
:02043800FE22A2
:10043A00BC000BBE0029EF8DF084FFADF022E4CCA6
:10044A00F875F008EF2FFFEE33FEEC33FCEE9DEC6F
:10045A00984005FCEE9DFE0FD5F0E9E4CEFD22EDB5
:10046A00F8F5F0EE8420D21CFEADF075F008EF2FFF
:10047A00FFED33FD4007985006D5F0F222C398FDF0
:05048A000FD5F0EA228D
:10048F00C5F0F8A3E028F0C5F0F8E58215827002F8
:06049F001583E038F02295
:1004A500E88FF0A4CC8BF0A42CFCE98EF0A42CFCF6
:1004B5008AF0EDA42CFCEA8EF0A4CDA8F08BF0A474
:1004C5002DCC3825F0FDE98FF0A42CCD35F0FCEBD3
:1004D5008EF0A4FEA9F0EB8FF0A4CFC5F02ECD3998
:0F04E500FEE43CFCEAA42DCE35F0FDE43CFC2205
:10130F00C2D5E830E70FB2D5E4C39BFBE49AFAE409
:10131F0099F9E498F8EC30E717B2D5121345120695
:10132F0040E4C39BFBE49AFAE499F9E498F880034C
:10133F0012064030D50DE4C39FFFE49EFEE49DFDF1
:04134F00E49CFC22FC
:0D04F400CFF4CFCEF4CECDF4CDCCF4CC229D
:10050100EB9FF5F0EA9E42F0E99D42F0E89C45F050
:0105110022C7
:10051200E8600FECC313FCED13FDEE13FEEF13FFC7
:03052200D8F122EB
:10052500E8600FEFC333FFEE33FEED33FDEC33FC34
:03053500D8F122D8
:10053800BB010DE58229F582E5833AF5830206DEE3
:100548005007E92582F80206D2BBFE07E92582F8A2
:100558000206EAE58229F582E5833AF5830206F682
:10056800BB010789828A830207485005E9F8020718
:0A0578003CBBFE05E9F8020754221F
:10058200BB010DE58229F582E5833AF5830207482E
:100592005007E92582F802073CBBFE07E92582F8ED
:0405A20002075422D6
:1005A600BB010789828A830207135005E9F802070F
:1005B60006BBFE05E9F802071F89828A8302072C1B
:0C05C600A42582F582E5F03583F5832240
:0605D2008A838982E473B4
:1005D800EF4E6012EF60010EEDBB010B89828A833A
:1005E800F0A3DFFCDEFA2289F05007F709DFFCA947
:0C05F800F022BBFEFCF309DFFCA9F0229E
:1006040075F008758200EF2FFFEE33FECD33CDCCAD
:1006140033CCC58233C5829BED9AEC99E582984030
:100624000CF582EE9BFEED9AFDEC99FC0FD5F0D60D
:10063400E4CEFBE4CDFAE4CCF9A88222B800C1B937
:100644000059BA002DEC8BF084CFCECDFCE5F0CB75
:10065400F97818EF2FFFEE33FEED33FDEC33FCEBAE
:1006640033FB10D703994004EB99FB0FD8E5E4F969
:10067400FA227818EF2FFFEE33FEED33FDEC33FC56
:10068400C933C910D7059BE99A4007EC9BFCE99A4A
:10069400F90FD8E0E4C9FAE4CCFB2275F010EF2F8F
:1006A400FFEE33FEED33FDCC33CCC833C810D7078F
:1006B4009BEC9AE899400AED9BFDEC9AFCE899F8CA
:0E06C4000FD5F0DAE4CDFBE4CCFAE4C8F9225D
:0C06D200E6FC08E6FD08E6FE08E6FF2254
:0C06DE00E0FCA3E0FDA3E0FEA3E0FF228F
:0C06EA00E2FC08E2FD08E2FE08E2FF224C
:1006F600E493FC740193FD740293FE740393FF224A
:0D070600E6FB08E6F908E6FA08E6CBF82263
:0C071300E0F8A3E0F9A3E0FAA3E0FB2269
:0D071F00E2FB08E2F908E2FA08E2CBF8225A
:10072C00E493F8740193F9740293FA740393FB2223
:0C073C00ECF608EDF608EEF608EFF622E9
:0C074800ECF0A3EDF0A3EEF0A3EFF02224
:0C075400ECF208EDF208EEF208EFF222E1
:00000001FF
