:030000000210AE3D
:0C10AE00787FE4F6D8FD7581630210F530
:0800030012002E12147080FBA4
:10002E0012178C1217C512001E1217821217B71252
:10003E0017CC1216E21217197BFF7A0B794D121795
:0D004E004C1217D37D807C257F02021272B8
:101470001217D71216B67B007A00793D1214D6ECFB
:101480004D4E4F601D7B007A00793D7FBC7E027D12
:10149000007C00121665E53CFB7A007DFB7FFA12AA
:0314A000143222E1
:10113A000000000000000005000A0BB800C80064A7
:10114A000002000000000004FFFFFFFFFFFFFFFF97
:10115A000014022A04081705010E022A04081505BC
:10116A0000E8022A04080F0500DC022A0408110517
:10117A0000E0022A0408130500E5022A0408130500
:10118A00010F022A0408130500E0022A04081305C5
:10119A0000E2022A0408110500D6022A04081D05E5
:0211AA0000CF74
:0412C3004100930053
:0B175800901144E493FE740193FF2203
:0B176300901148E493FE740193FF22F4
:08179F00901142740193FF2236
:0317DB007F012269
:10156100AD07ED75F008A42462F582E43411F5832A
:10157100E493FEED75F008A42463F582E43411F5DB
:0C15810083E4937C002400FFEC3EFE227B
:1016F500EF75F008A4245FF582E43411F583E493D3
:02170500FF22C1
:0817A70090113C740193FF2234
:10170700EF75F008A42460F582E43411F583E493BF
:02171700FF22AF
:0817AF00900000E0C313FF22CB
:0A176E00900000E075F00384FF22F4
:1016CD00121561EF7803C333CE33CED8F9FF7C000A
:0516DD007D0A02043A41
:10121D00E4FBFAF50BF50AF509F508750B38750AB7
:10122D00D375090CF508EBC3941774809480503274
:10123D00AF0BAE0AAD09AC0878011205128F0B8EFB
:10124D000A8D098C0830D717741F2AF582E43400F3
:10125D00F583EBF00AEAC3940A7480948050030B73
:04126D0080C48A555A
:01127100225A
:10153400EF14601214601414601114601524047004
:101544001990115C800890115D800390115EE49302
:0D155400FF2290114E740193FF227F0022B0
:10162800901140740193900000F090115A74019346
:0F163800900074F012121DE4900072F0A3F022E3
:100A1D00E4F509F50DF50CF50BF50AF511F510F5E5
:100A2D000FF50E1217E15003020B391216038F0D3D
:100A3D008E0C8D0B8C0AE4FBEBC395555047AF0D17
:100A4D00AE0CAD0BAC0A78011205128F0D8E0C8D0C
:100A5D000B8C0A30D72CE47F01FEFDFC741F2BF5A7
:100A6D0082E43400F583E0F9F8120525E5114FF520
:100A7D0011E5104EF510E50F4DF50FE50E4CF50E89
:100A8D0005090B80B3AF097E00C3EF940274809407
:100A9D00804018D200EF94037480948040051217A3
:100AAD00E480081217A7EF6002C20020002CE4FFBB
:100ABD00FEFDFCAB11AA10A90FA80EC31205016013
:100ACD0010900073E004F07006900072E004F08066
:100ADD0020E4900072F0A3F08017900070E004F015
:100AED00700690006FE004F0E4F511F510F50FF5C8
:100AFD000E121758D3900073E09F900072E09E4045
:100B0D000A1217E4E4900072F0A3F0D3900070E0A5
:100B1D00942C90006FE09401401D1217E490009307
:100B2D007401F0E490006FF0A3F0800B90114AE493
:0F0B3D00740193FF120C74AF11AE10AD0FAC0E1C
:010B4C002286
:0412C7004100D10011
:100D930075F0029000751205C6E0FEA3E0FFE514AE
:100DA30075F0029000290205C6E51375F002900064
:100DB300010205C6E51375F0029000510205C674E1
:100DC3003D2517F582E43400F58322D3E5159FEE24
:100DD3006480F8E5146480982274652513F582E431
:100DE3003400F58322D3FFED9FEE6480F8EC64803A
:100DF300982274892513F582E43400F58322E004F4
:100E0300F074152513F582E43400F58322E5147597
:100E1300F0029000750205C6FEC3E5169FEE6480DE
:100E2300F8E51564809822E5505554FFE54F555376
:100E3300FEE54E5552FDE54D5551FC2274472513F1
:100E4300F582E43400F58322E4F0FFFEFDFCAB50B1
:100E5300AA4FA94EA84DC30205017E009000CDE024
:100E6300FCA3E0FD1204288EE78FE622E0FEA3E058
:100E7300FF75F00222A4FFE0C39FE5F06480F874DD
:100E8300809822900074E0FB3395E0FAEBAE0222E7
:100E9300E0FCA3E0FDEF22E0FCA3E0C39F2290006F
:080EA30074E0FF3395E0FE222C
:0C000E00EF4E6007EF1F70F81E80F52217
:03005B0002101C74
:10101C00C0E0C0F0C083C082C0D075D000C000C09A
:0D102C0001C002C003C004C005C006C0071B
:10103900C2029000D2E0120DA3E5E5F0A3E5E4F0C9
:101049009000D2E004F0E0C39555400BE4F0900025
:1010590071E04480F08002D2029000D2E0FF1216C3
:10106900F5120E5D9000D2E0FF121707E5E25480F9
:101079004FF5E29000D2E0241FF582E43400F583B5
:0A108900E04480F5E8300202D2EEE8
:10109300D007D006D005D004D003D002D001D000B1
:0B10A300D0D0D082D083D0F0D0E0325B
:1011AC00D2AF75E880C201E49000D2F0900071F0EB
:1011BC00121628E4FF121534EF2401FDE433FC7EF3
:1011CC000B7FB812043A9000CDEEF0A3EFF0E4FFE1
:1011DC001216F5120E5D7F02121534EFC454F0FE98
:1011EC00C006E4FF121534D0E02FF5E17F03121591
:1011FC0034E5E254804FF5E27F011215348FE3128F
:10120C00131043A91090001FE042E81214A3021619
:01121C008150
:0317DE00D2EE2226
:1015DE00E4FD900071E0547FF0D2EE900071E020B7
:1015EE00E7127FE87E0312000E43CF100DEDC39479
:0415FE003240E8226D
:0116020022C5
:1014A3007508101215DEAF081508EF70F61216470F
:1014B30012179F8F081215DEE4F509E509C3955548
:1014C3005009AF09120EAB050980F0AF081508EFFC
:0214D30070E3C4
:0114D50022F4
:10168100E4FFEFC395555012EF120DA3120E931202
:0A1691000DAEECF0A3EDF00F80E8C1
:01169B00222C
:10160300E49000D3F0F512E512C39555500EAF12D6
:10161300120EABAF1212005E051280EBAF50AE4F4D
:04162300AD4EAC4DCF
:0116270022A0
:02005E008F13FE
:10006000E4F51B75F002EF120DB1120E6FE51312DD
:100070000DA6120E9AF515EC9EF514E47F01FEFD17
:10008000FCA913A8011205258F548E538D528C5153
:10009000AF131215618E198F1AC3E515951AE5195C
:1000A000120DD340057516018003E4F516E51664BC
:1000B0000160030201E5743D2513120DC6E0C394EF
:1000C000FA500A743D2513120DC6E004F0120E2AF0
:1000D000E4FBFAF9F8C312050160030201C89000BD
:1000E00000E0F5181217DBEF6028E4F516F517E5C8
:1000F00017C39555500F120DC2E0C394014002057D
:1001000016051780EAE516C394034006740F2518F8
:10011000F518743D2513120DC6E0C395185003025F
:1001200001C8E4F5161217A7EF7051F517E517C3CC
:100130009555501AE5136517601012176E120DC20F
:10014000E0C39F40057516018004051780DF121774
:10015000DBEF7052E516704EF517E517C395555055
:1001600045E5136517601112176E74472517120EB7
:1001700043E0C39F4002802B051780DE1217DBEFA0
:100180007024F518F517E517C39555500F120DC2D9
:10019000E0C3940240020518051780EAE518C394ED
:1001A000034003751601E516B40102D200E550457F
:1001B00054FFE54F4553FEE54E4552FDE54D455193
:1001C0008F508E4F8D4EF54D120DDCE4F0120DF573
:1001D000E4F0120DB7E4F0A3F074152513F582E4F2
:1001E00034000203B8AF131216CD120DCE40081220
:1001F0000E3FE004F0800B9000D3E004F0120E3FBD
:10020000E4F0120EA1C3E49FFDE49EFCC3E5159D3E
:10021000EC120DD34066120DCE5061120DDCE412CB
:100220000E03120E4B6003020325120DB7E5148571
:1002300015F012048F121763120DB7E0FCA3E0C390
:10024000120DEB4009120DACE475F001802112177C
:1002500063C3E49FFFE49EFE120DB7E0FCA3E0C37E
:10026000120DEB4003020325120DAC74FFF5F012E2
:10027000048F120DB7E4F0A3F0020325900074E0A0
:10028000FFFD3395E0FCC3E49DFDE49CFCC3E51554
:100290009DEC120DD35057120DDC120E01E4F0123A
:1002A0000DDCE0FE75F00A84E5F07034EEC3946472
:1002B000400E120DDCE4F0D20190009304F0802097
:1002C000120DACC083C082120E93A2E713FF3395C8
:1002D000E0FEC3ED9FFFEC9ED082D083F0A3EFF051
:1002E0009000CCE06513703D74FFF0020325120E00
:1002F000A1120DCE402F120DDC120E4B7027120EE4
:1003000004120E01E0B4201D120E04E4F0900074FB
:10031000E0A2E713A2E713FF3395E0FE120DACEE67
:100320008FF012048F120E2A4D4E4F70030203C439
:10033000E51AAE197802CEA2E713CE13D8F8FFC3A0
:10034000E51A9FFFE5199EFEC3120DCF506F120DE7
:10035000F5E004F01217AF8F18E4F517E517C39511
:1003600055500F120DC2E0C3940140020516051747
:1003700080EAE516C394034006900000E0F51812E9
:100380000DF5E0C395184072120DF5E4F0AF54AED0
:1003900053AD52AC511204F4E5505FFFE54F5EFEE1
:1003A000E54E5DFDE54D5C8F508E4F8D4EF54D74E5
:1003B0003D2513F582E43400F583E4F022120DF5B7
:1003C000E014F022743D2513120DC6E4F0E5551437
:1003D000651370269000D3E0C39555401DE4F517D2
:1003E000E517C39555500D120DC2E0600375160157
:0A03F000051780ECE5167002C2004C
:0103FA0022E0
:10164700E4FFEFC39555501575F002EF120DA61282
:0D1657000E93120E12ECF0A3EDF00F80E5E3
:011664002263
:020EAB008F14A2
:100EAD00EF120D93120E9AF516EC9EF515AF141266
:100EBD001561AD07AC06D3E5169DEC120E21500B56
:100ECD00C3E49DFFE49C120E1B500B120DA1E0FE1E
:100EDD00A3E0FF020F53ECA2E713FEED13FFD312B5
:100EED000E1D500BC3E49FFFE49E120E1B502712E4
:100EFD000E10E0FCA3E0FDECC313FEED13FFC3EDFC
:100F0D009FFDEC9EFC120DA1E0C313FEA3E0132D7B
:100F1D00FFEC3EFE8030120E10E0FCA3E0FDAE04AF
:100F2D007803CEC313CE13D8F9FFC3ED9FFDEC9E0E
:100F3D00FC120DA1E0FEA3E07803CEC313CE13D8AF
:100F4D00F92DFFEC3EFE120E10EEF0A3EFF0E514BE
:080F5D00120D93EEF0A3EFF07A
:010F65002269
:0317E100A2012240
:0317E400D201220D
:10131000E4FFEFC39555502B743D2F120DC6E4F03A
:1013200074652F120DE0E4F074892F120DF9E4F0CA
:10133000EF120DB9E4F0A3F074472F120E43E4F05E
:101340000F80CFE4F550F54FF54EF54D9000CC747D
:0B135000FFF0E49000CFF0A3F0C2011A
:01135B00226F
:020C74008F12DD
:100C76009000D1E0C394034035E4F0900093E07017
:100C860022F513E513C39555501975F002E51312B5
:100C96000E15120E6FE513120DB1EEF0A3EFF0056F
:100CA6001380E0121310C201E4900093F02290002A
:100CB600CBE004F0E0B51208121647E49000CCF041
:100CC6009000CBE0D395125003020D92E4F513E5A4
:100CD60013C39555507A75F002E513120E15120ED0
:100CE6006FE513120DA6120E9AFFEC9EAD07FC904F
:100CF6000093E07029120E867802C333CE33CED825
:100D0600F9120DE84040E49BFFE49AFEEF7802C337
:100D160033CE33CED8F9C3120DE9502A8032120EE3
:100D2600867803C333CE33CED8F9120DE84017E4E4
:100D36009BFFE49AFEEF7803C333CE33CED8F9FF98
:100D4600C3120DEA400AAF13120EAB0513020CD5FF
:100D5600E513B555069000CCE004F0E51275F008F1
:100D66009000CB120E784024E4F0C2009000D1E04F
:100D760004F0E51275F0049000CC120E78400DE4F4
:0C0D86009000D1F0121681121310C2016F
:010D9200223E
:0717B70043A12053A2DF2231
:1016E200758E07758911758A18758CFCC28CD2A902
:0316F200D28C2275
:03000B000213A736
:1013A700C0E0C0F0C083C082C0D075D000C000C00C
:1013B70001C002C003C004C005C006C007758A1873
:1013C700758CFC12169C1215B712135CD007D00649
:1013D700D005D004D003D002D001D000D0D0D08225
:0713E700D083D0F0D0E0320A
:03001B000217BE0B
:0717BE00758B9C758DFF3255
:03002B000217E7D2
:0317E700C2CF323C
:101272008D828C835391F375920C438780759850BD
:10128200E4F5C8758E03758920FCFDFE7B407A4229
:10129200790FF81204A5C006C007AE83AF82AB0770
:1012A200AA06E4F9F8D007D0061213EEE47B10FA8E
:1012B200F9F81213EEEFF404F58DD28ED2ACD2AF60
:0112C2002209
:0A1778008F99E55F60FCE4F55F2245
:061506008B138A14891505
:10150C00E4F55DC3E55D9407748094805017AB13CC
:10151C00AA14A915855D827583001203FBFF1217AF
:07152C0078055D80DE7F0100
:011533002295
:081432008F088D098A0A8B0B5B
:10143A007E007F077D007B007A00790C1205D88533
:10144A00080C85090DE50AF50EE50BF50FE50C25E7
:10145A000D250E250FF51075110D75120A7B007AF0
:06146A0000790C021506DA
:0300230002172B96
:10172B00309905C299755F01309805C298755E01B5
:01173B00327B
:1012CB00012FFF60370094000000000001020304AF
:1012DB0005060708090A0B0C0D0E0F10111213143B
:1012EB0015161718191A1B1C1D1E1F20212223242B
:0E12FB0025262728292A2B2C2D2E2F30313284
:100F6600E4F509F50A7F01120760EC4D4E4F600566
:100F7600050A7509017F02120760EC4D4E4F6005A8
:100F8600050A7509027F03120760EC4D4E4F600596
:100F9600050A7509037F04120760EC4D4E4F600584
:100FA600050A7509047F05120760EC4D4E4F600572
:100FB600050A7509057F06120760EC4D4E4F600560
:100FC600050A7509067F07120760EC4D4E4F60054E
:100FD600050A7509077F08120760EC4D4E4F60053C
:100FE600050A7509087F09120760EC4D4E4F60052A
:100FF600050A7509097F0A120760EC4D4E4F600518
:10100600050A75090AD3E50A9401748094804003A1
:051016007509FFAF09A0
:01101B0022B2
:101719001211ACE4F52AFB7A007934FFFEFDFC02D4
:02172900166543
:020B4D008F080F
:100B4F007E00EF700BE53C7003020C73E4F53C2262
:100B5F00EF64024E7026E5637022AF3CEF640C70B9
:100B6F0008EF640D7003020C730521E52130E006D8
:100B7F00753C0C020026753C0D02001EE50864074B
:100B8F007007E563700302158DAF087E00EF640BED
:100B9F007011E563700DE53C64017003020C737511
:100BAF003C0122EF64104E7011E563700DE53C645B
:100BBF00027003020C73753C0222E5086415701174
:100BCF00E563700DE53C64037003020C73753C0321
:100BDF0022AF087E00EF641A7011E563700DE53CDB
:100BEF0064047003020C73753C0422EF641F4E7093
:100BFF000EE563700AE53C64056069753C0522E506
:100C0F00086424700EE563700AE53C640660557550
:100C1F003C0622AF087E00EF6429700EE563700A70
:100C2F00E53C6407603E753C0722EF642E4E700E64
:100C3F00E563700AE53C6408602A753C0822E50804
:100C4F006409700EE563700AE53C64096016753C33
:100C5F000922E5086404700CE53C64996006753C54
:040C6F009912173C83
:010C7300225E
:1008C800900071E030E711547FF0120A1D8F338ECB
:1008D800328D318C301217DE7B007A007934121495
:1008E800D6EC4D4E4F70037FFF227B007A0079349F
:1008F8007F647E007D007C00121665120F668F08EB
:10090800EFF470037FFF22E52A14603014606C1442
:1009180070030209CD24036003020A17E508700278
:10092800FF2285082F7B007A0079227F647E007D74
:10093800007C00121665752A01020A1AE52F65085F
:100948006003020A177B007A0079221214D6EC4D54
:100958004E4F7003020A1A7B007A0079227F107EBC
:10096800277D007C00121665752A02E52F75F005B3
:10097800A42494F582E43400020A12E52F65086085
:1009880012E4F52AE52F75F005A42495F582E434E0
:100998000080777B007A0079221214D6EC4D4E4FF6
:1009A80060707B007A0079227F647E007D007C0085
:1009B800121665752A03E52F75F005A42496F582AD
:1009C800E434008045E52F65086012E4F52AE52F38
:1009D80075F005A42498F582E43400802D7B007A14
:1009E8000079221214D6EC4D4E4F60267B007A0017
:1009F80079227F647E007D007C00121665E52F75E4
:100A0800F005A42497F582E43400F583E0FF22E49E
:040A1800F52A7FFF3D
:010A1C0022B7
:0C174C00EA494B60068B2C8A2D892E2266
:1016B6001208C88F2BE52D452E452C6009852E82F4
:0716C600852D831205D622D9
:100760008F0BEF6401701D7F08FEFDFCAB33AA32D6
:10077000A931A830C312050170057F080208C4E43E
:10078000FF0208C4E50B6402701D7F10FEFDFCAB88
:1007900033AA32A931A830C312050170057F1002B7
:1007A00008C4E4FF0208C4E50B6403701EFF7E105A
:1007B000FDFCAB33AA32A931A830C3120501700683
:1007C000FF7E10FDFC22E4FF0208C4E50B64047008
:1007D0001EFF7E02FDFCAB33AA32A931A830C31242
:1007E00005017006FF7E02FDFC22E4FF0208C4E55D
:1007F0000B6405701EFF7E01FDFCAB33AA32A931EC
:10080000A830C31205017006FF7E01FDFC22E4FF43
:100810000208C4E50B6406701D7F20FEFDFCAB33AF
:10082000AA32A931A830C312050170057F20020841
:10083000C4E4FF0208C4E50B6407701DFFFE7D08D9
:10084000FCAB33AA32A931A830C31205017006FFF0
:10085000FE7D08FC22E4FF806BE50B6408701DFF41
:10086000FE7D04FCAB33AA32A931A830C3120501C6
:100870007006FFFE7D04FC22E4FF8048E50B64095E
:10088000701DFF7E80FDFCAB33AA32A931A830C3B6
:100890001205017006FF7E80FDFC22E4FF8025E545
:1008A0000B640A701DFF7E40FDFCAB33AA32A931F8
:1008B000A830C31205017006FF7E40FDFC22E4FF54
:0808C0008002E4FFFEFDFC22B2
:0717C500439A01539BFE2231
:04001E0075600F22D8
:04002600756064227B
:1015B7000562E56270020561D39464E561940040B9
:1015C70005E4F561F562D3E5629560E56194004055
:0715D70003C28022D2802232
:0A178200439A06539BF9758000227C
:10158D000556E55630E00E5380F9438002755A0139
:10159D00E4F557800C5380F9438004E4F55A7557F0
:0915AD0001F55BF55CF558F559F8
:0115B6002212
:10135C00E55A6021055CE55C7002055BD39420E5E1
:10136C005B944E4010E4F55BF55CF558F5595380F1
:10137C00F9F55AF557E55760210559E559700205FD
:10138C0058D39420E558944E4010E4F55BF55CF589
:0B139C0058F5595380F9F55AF5572217
:0717CC0043A12053A2DF221C
:10173C00E5637006756301D2A522E4F563C2A522A8
:0417D30043CF1022CE
:0417D70043CF1022CA
:06130900041C00000000BE
:0A178C00E4F51FF51EF51DF51C2203
:10169C00AF1FAE1EAD1DAC1CEF2401F51FE43EF5D3
:0A16AC001EE43DF51DE43CF51C2290
:09179600AF1FAE1EAD1DAC1C22FC
:101665008F0C8E0B8D0A8C09121796120568AF0C1C
:0C167500AE0BAD0AAC0990000402058227
:1014D6008B098A0A890B9000041205381205A6C3E7
:1014E600E51F9BFBE51E9AFAE51D99F9E51C98F8A0
:1014F600C3120501E440047F018001FFFEFDFC22CA
:1010BA00020003E493A3F8E493A34003F68001F249
:1010CA0008DFF48029E493A3F85407240CC8C33337
:1010DA00C4540F4420C8834004F456800146F6DF06
:1010EA00E4800B01020408102040809012C3E47EC1
:1010FA00019360BCA3FF543F30E509541FFEE493FB
:10110A00A360010ECF54C025E060A840B8E493A3C1
:10111A00FAE493A3F8E493A3C8C582C8CAC583CAEC
:10112A00F0A3C8C582C8CAC583CADFE9DEE780BEA4
:01130F0000DD
:1003FB00BB010CE58229F582E5833AF583E02250B7
:10040B0006E92582F8E622BBFE06E92582F8E22200
:0D041B00E58229F582E5833AF583E493221A
:10042800EF8DF0A4A8F0CF8CF0A428CE8DF0A42EE8
:02043800FE22A2
:10043A00BC000BBE0029EF8DF084FFADF022E4CCA6
:10044A00F875F008EF2FFFEE33FEEC33FCEE9DEC6F
:10045A00984005FCEE9DFE0FD5F0E9E4CEFD22EDB5
:10046A00F8F5F0EE8420D21CFEADF075F008EF2FFF
:10047A00FFED33FD4007985006D5F0F222C398FDF0
:05048A000FD5F0EA228D
:10048F00C5F0F8A3E028F0C5F0F8E58215827002F8
:06049F001583E038F02295
:1004A500E88FF0A4CC8BF0A42CFCE98EF0A42CFCF6
:1004B5008AF0EDA42CFCEA8EF0A4CDA8F08BF0A474
:1004C5002DCC3825F0FDE98FF0A42CCD35F0FCEBD3
:1004D5008EF0A4FEA9F0EB8FF0A4CFC5F02ECD3998
:0F04E500FEE43CFCEAA42DCE35F0FDE43CFC2205
:1013EE00C2D5E830E70FB2D5E4C39BFBE49AFAE42A
:1013FE0099F9E498F8EC30E717B2D51214241206D6
:10140E0040E4C39BFBE49AFAE499F9E498F880036C
:10141E0012064030D50DE4C39FFFE49EFEE49DFD11
:04142E00E49CFC221C
:0D04F400CFF4CFCEF4CECDF4CDCCF4CC229D
:10050100EB9FF5F0EA9E42F0E99D42F0E89C45F050
:0105110022C7
:10051200E8600FECC313FCED13FDEE13FEEF13FFC7
:03052200D8F122EB
:10052500E8600FEFC333FFEE33FEED33FDEC33FC34
:03053500D8F122D8
:10053800BB010DE58229F582E5833AF5830206DEE3
:100548005007E92582F80206D2BBFE07E92582F8A2
:100558000206EAE58229F582E5833AF5830206F682
:10056800BB010789828A830207485005E9F8020718
:0A0578003CBBFE05E9F8020754221F
:10058200BB010DE58229F582E5833AF5830207482E
:100592005007E92582F802073CBBFE07E92582F8ED
:0405A20002075422D6
:1005A600BB010789828A830207135005E9F802070F
:1005B60006BBFE05E9F802071F89828A8302072C1B
:0C05C600A42582F582E5F03583F5832240
:0605D2008A838982E473B4
:1005D800EF4E6012EF60010EEDBB010B89828A833A
:1005E800F0A3DFFCDEFA2289F05007F709DFFCA947
:0C05F800F022BBFEFCF309DFFCA9F0229E
:1006040075F008758200EF2FFFEE33FECD33CDCCAD
:1006140033CCC58233C5829BED9AEC99E582984030
:100624000CF582EE9BFEED9AFDEC99FC0FD5F0D60D
:10063400E4CEFBE4CDFAE4CCF9A88222B800C1B937
:100644000059BA002DEC8BF084CFCECDFCE5F0CB75
:10065400F97818EF2FFFEE33FEED33FDEC33FCEBAE
:1006640033FB10D703994004EB99FB0FD8E5E4F969
:10067400FA227818EF2FFFEE33FEED33FDEC33FC56
:10068400C933C910D7059BE99A4007EC9BFCE99A4A
:10069400F90FD8E0E4C9FAE4CCFB2275F010EF2F8F
:1006A400FFEE33FEED33FDCC33CCC833C810D7078F
:1006B4009BEC9AE899400AED9BFDEC9AFCE899F8CA
:0E06C4000FD5F0DAE4CDFBE4CCFAE4C8F9225D
:0C06D200E6FC08E6FD08E6FE08E6FF2254
:0C06DE00E0FCA3E0FDA3E0FEA3E0FF228F
:0C06EA00E2FC08E2FD08E2FE08E2FF224C
:1006F600E493FC740193FD740293FE740393FF224A
:0D070600E6FB08E6F908E6FA08E6CBF82263
:0C071300E0F8A3E0F9A3E0FAA3E0FB2269
:0D071F00E2FB08E2F908E2FA08E2CBF8225A
:10072C00E493F8740193F9740293FA740393FB2223
:0C073C00ECF608EDF608EEF608EFF622E9
:0C074800ECF0A3EDF0A3EEF0A3EFF02224
:0C075400ECF208EDF208EEF208EFF222E1
:00000001FF
