:0300000002105A91
:0C105A00787FE4F6D8FD7581650210A1D6
:0800030012002E12142080FBF4
:10002E001216DA12174D12178612001E12174312ED
:10003E00177812178D1215D87BFF7A0D7984121747
:0D004E000D1217947D807C257F0202121E8A
:1014200012179812168A7B007A00793F121486EC04
:101430004D4E4F601D7B007A00793F7FBC7E027D60
:10144000007C00121639E53EFB7A007DFB7FFA1224
:0314500013E22282
:1010E6000000000000000005000A0BB800C80064FC
:1010F6000002000000000004FFFFFFFFFFFFFFFFEC
:101106000014022A04081705010E022A0408150510
:1011160000E8022A04080F0500DC022A040811056B
:1011260000E0022A0408130500E5022A0408130554
:10113600010F022A0408130500E0022A0408130519
:1011460000E2022A0408110500D6022A04081D0539
:0211560000CFC8
:04126F0041009300A7
:0B1719009010F0E493FE740193FF2297
:0B1724009010F4E493FE740193FF2288
:081760009010EE740193FF22CA
:03179C007F0122A8
:10151100AD07ED75F008A4240EF582E43411F583CE
:10152100E493FEED75F008A4240FF582E43411F57F
:0C15310083E4937C002400FFEC3EFE22CB
:1016B600EF75F008A4240BF582E43411F583E49366
:0216C600FF2201
:081768009010E8740193FF22C8
:1016C800EF75F008A4240CF582E43411F583E49353
:0216D800FF22EF
:08177000900000E0C313FF220A
:0A172F00900000E075F00384FF2233
:1016A100121511EF7803C333CE33CED8F9FF7C0086
:0516B1007D0A02043A6D
:1011C900E4FBFAF50BF50AF509F508750B38750A0C
:1011D900D375090CF508EBC39417748094805032C9
:1011E900AF0BAE0AAD09AC0878011205128F0B8E50
:1011F9000A8D098C0830D717741F2AF582E4340048
:10120900F583EBF00AEAC3940A7480948050030BC7
:0412190080C48A57AC
:01121D0022AE
:1014E400EF14601214601414601114601524047055
:1014F400199011088008901109800390110AE4934F
:0D150400FF229010FA740193FF227F002255
:1015FC009010EC740193900000F09011067401931C
:0F160C00900074F01211C9E4900072F0A3F02264
:100A1D00E4F509F50DF50CF50BF50AF511F510F5E5
:100A2D000FF50E1217A25003020B391215B38F0DCD
:100A3D008E0C8D0B8C0AE4FBEBC395575047AF0D15
:100A4D00AE0CAD0BAC0A78011205128F0D8E0C8D0C
:100A5D000B8C0A30D72CE47F01FEFDFC741F2BF5A7
:100A6D0082E43400F583E0F9F8120525E5114FF520
:100A7D0011E5104EF510E50F4DF50FE50E4CF50E89
:100A8D0005090B80B3AF097E00C3EF940274809407
:100A9D00804018D200EF94037480948040051217A3
:100AAD00A58008121768EF6002C20020002CE4FF39
:100ABD00FEFDFCAB11AA10A90FA80EC31205016013
:100ACD0010900073E004F07006900072E004F08066
:100ADD0020E4900072F0A3F08017900070E004F015
:100AED00700690006FE004F0E4F511F510F50FF5C8
:100AFD000E121719D3900073E09F900072E09E4084
:100B0D000A1217A5E4900072F0A3F0D3900070E0E4
:100B1D00942C90006FE09401401D1217A590009346
:100B2D007401F0E490006FF0A3F0800B9010F6E4E8
:0F0B3D00740193FF120B4DAF11AE10AD0FAC0E44
:010B4C002286
:041273004100D10065
:100C6C0075F0029000751205C6E0FEA3E0FFE514D6
:100C7C0075F0029000290205C6E51375F00290008C
:100C8C00010205C6E51375F0029000510205C67409
:100C9C003D2517F582E43400F58322D3E5159FEE4C
:100CAC006480F8E5146480982274652513F582E459
:100CBC003400F58322D3FFED9FEE6480F8EC648062
:100CCC00982274892513F582E43400F58322E0041C
:100CDC00F074152513F582E43400F58322E51475C0
:100CEC00F0029000750205C6FEC3E5169FEE648007
:100CFC00F8E51564809822E5525556FFE551555597
:100D0C00FEE5505554FDE54F5553FC227447251311
:100D1C00F582E43400F58322E4F0FFFEFDFCAB52D7
:100D2C00AA51A950A84FC30205017E009000CDE046
:100D3C00FCA3E0FD1204288EE78FE622E0FEA3E080
:100D4C00FF75F00222A4FFE0C39FE5F06480F87405
:100D5C00809822900074E0FB3395E0FAEBAE02220F
:100D6C00E0FCA3E0FDEF22E0FCA3E0C39F22900097
:080D7C0074E0FF3395E0FE2254
:0C000E00EF4E6007EF1F70F81E80F52217
:03005B00020FC8C9
:100FC800C0E0C0F0C083C082C0D075D000C000C0EF
:0D0FD80001C002C003C004C005C006C00770
:100FE500C2029000D2E0120C7CE5E5F0A3E5E4F046
:100FF5009000D2E004F0E0C39557400BE4F0900078
:1010050071E04480F08002D2029000D2E0FF121617
:10101500B6120D369000D2E0FF1216C8E5E25480F4
:101025004FF5E29000D2E0241FF582E43400F58309
:0A103500E04480F5E8300202D2EE3C
:10103F00D007D006D005D004D003D002D001D00005
:0B104F00D0D0D082D083D0F0D0E032AF
:10115800D2AF75E880C201E49000D2F0900071F03F
:101168001215FCE4FF1214E4EF2401FDE433FC7EC5
:101178000B7FB812043A9000CDEEF0A3EFF0E4FF35
:101188001216B6120D367F021214E4EFC454F0FEA4
:10119800C006E4FF1214E4D0E02FF5E17F03121437
:1011A800E4E5E254804FF5E27F011214E48FE31284
:1011B80012BC43A91090001FE042E8121453021613
:0111C80055D1
:03179F00D2EE2265
:10158E00E4FD900071E0547FF0D2EE900071E02007
:10159E00E7127FE87E0312000E43CF100DEDC394C9
:0415AE003240E822BD
:0115B2002216
:1014530075081012158EAF081508EF70F612161BDB
:101463001217608F0812158EE4F509E509C3955725
:101473005009AF09120E57050980F0AF081508EFA0
:0214830070E314
:011485002244
:10165500E4FFEFC395575012EF120C7C120D6C127C
:0A1665000C87ECF0A3EDF00F80E815
:01166F002258
:1015B300E49000D3F0F512E512C39557500EAF1225
:1015C300120E57AF1212005E051280EBAF52AE51EE
:0415D300AD50AC4F1C
:0115D70022F1
:02005E008F13FE
:10006000E4F51B75F002EF120C8A120D48E513122D
:100070000C7F120D73F515EC9EF514E47F01FEFD67
:10008000FCA913A8011205258F568E558D548C534B
:10009000AF131215118E198F1AC3E515951AE519AC
:1000A000120CAC40057516018003E4F516E51664E4
:1000B0000160030201E5743D2513120C9FE0C39417
:1000C000FA500A743D2513120C9FE004F0120D0340
:1000D000E4FBFAF9F8C312050160030201C89000BD
:1000E00000E0F51812179CEF6028E4F516F517E507
:1000F00017C39557500F120C9BE0C39401400205A3
:1001000016051780EAE516C394034006740F2518F8
:10011000F518743D2513120C9FE0C3951850030287
:1001200001C8E4F516121768EF7051F517E517C30B
:100130009557501AE5136517601012172F120C9B74
:10014000E0C39F40057516018004051780DF121774
:100150009CEF7052E516704EF517E517C395575092
:1001600045E5136517601112172F74472517120DF7
:100170001CE0C39F4002802B051780DE12179CEF06
:100180007024F518F517E517C39557500F120C9BFF
:10019000E0C3940240020518051780EAE518C394ED
:1001A000034003751601E516B40102D200E552457D
:1001B00056FFE5514555FEE5504554FDE54F455385
:1001C0008F528E518D50F54F120CB5E4F0120CCEBB
:1001D000E4F0120C90E4F0A3F074152513F582E41A
:1001E00034000203B8AF131216A1120CA740081274
:1001F0000D18E004F0800B9000D3E004F0120D180D
:10020000E4F0120D7AC3E49FFDE49EFCC3E5159D66
:10021000EC120CAC4066120CA75061120CB5E41243
:100220000CDC120D246003020325120C90E51485EA
:1002300015F012048F121724120C90E0FCA3E0C3F7
:10024000120CC44009120C85E475F00180211217CC
:1002500024C3E49FFFE49EFE120C90E0FCA3E0C3E5
:10026000120CC44003020325120C8574FFF5F01232
:10027000048F120C90E4F0A3F0020325900074E0C8
:10028000FFFD3395E0FCC3E49DFDE49CFCC3E51554
:100290009DEC120CAC5057120CB5120CDAE4F012B3
:1002A0000CB5E0FE75F00A84E5F07034EEC394649A
:1002B000400E120CB5E4F0D20190009304F08020BF
:1002C000120C85C083C082120D6CA2E713FF339518
:1002D000E0FEC3ED9FFFEC9ED082D083F0A3EFF051
:1002E0009000CCE06513703D74FFF0020325120D01
:1002F0007A120CA7402F120CB5120D247027120C85
:10030000DD120CDAE0B4201D120CDDE4F090007474
:10031000E0A2E713A2E713FF3395E0FE120C85EE8F
:100320008FF012048F120D034D4E4F70030203C461
:10033000E51AAE197802CEA2E713CE13D8F8FFC3A0
:10034000E51A9FFFE5199EFEC3120CA8506F120C10
:10035000CEE004F01217708F18E4F517E517C39577
:1003600057500F120C9BE0C394014002051605176D
:1003700080EAE516C394034006900000E0F51812E9
:100380000CCEE0C395184072120CCEE4F0AF56AE1E
:1003900055AD54AC531204F4E5525FFFE5515EFED7
:1003A000E5505DFDE54F5C8F528E518D50F54F74D9
:1003B0003D2513F582E43400F583E4F022120CCEDF
:1003C000E014F022743D2513120C9FE4F0E557145D
:1003D000651370269000D3E0C39557401DE4F517D0
:1003E000E517C39557500D120C9BE060037516017D
:0A03F000051780ECE5167002C2004C
:0103FA0022E0
:10161B00E4FFEFC39557501575F002EF120C7F12D4
:0D162B000D6C120CEBECF0A3EDF00F80E560
:01163800228F
:020E57008F14F6
:100E5900EF120C6C120D73F516EC9EF515AF14120A
:100E69001511AD07AC06D3E5169DEC120CFA500B23
:100E7900C3E49DFFE49C120CF4500B120C7AE0FEC3
:100E8900A3E0FF020EFFECA2E713FEED13FFD3125E
:100E99000CF6500BC3E49FFFE49E120CF45027128A
:100EA9000CE9E0FCA3E0FDECC313FEED13FFC3ED79
:100EB9009FFDEC9EFC120C7AE0C313FEA3E0132DF8
:100EC900FFEC3EFE8030120CE9E0FCA3E0FDAE042D
:100ED9007803CEC313CE13D8F9FFC3ED9FFDEC9E63
:100EE900FC120C7AE0FEA3E07803CEC313CE13D82C
:100EF900F92DFFEC3EFE120CE9EEF0A3EFF0E5143C
:080F0900120C6CEEF0A3EFF0F6
:010F110022BD
:0317A200A201227F
:0317A500D201224C
:1012BC00E4FFEFC39557502B743D2F120C9FE4F0B5
:1012CC0074652F120CB9E4F074892F120CD2E4F06F
:1012DC00EF120C92E4F0A3F074472F120D1CE4F003
:1012EC000F80CFE4F552F551F550F54F9000CC74CA
:0B12FC00FFF0E49000CFF0A3F0C2016F
:0113070022C3
:020B4D008F1205
:100B4F009000D1E0C394034035E4F0900093E0703F
:100B5F0022F513E513C39557501975F002E51312DB
:100B6F000CEE120D48E513120C8AEEF0A3EFF00510
:100B7F001380E01212BCC201E4900093F0229000A7
:100B8F00CBE004F0E0B5120812161BE49000CCF095
:100B9F009000CBE0D395125003020C6BE4F513E5F4
:100BAF0013C39557507A75F002E513120CEE120D20
:100BBF0048E513120C7F120D73FFEC9EAD07FC90EE
:100BCF000093E07029120D5F7802C333CE33CED875
:100BDF00F9120CC14040E49BFFE49AFEEF7802C388
:100BEF0033CE33CED8F9C3120CC2502A8032120D35
:100BFF005F7803C333CE33CED8F9120CC14017E45C
:100C0F009BFFE49AFEEF7803C333CE33CED8F9FFC0
:100C1F00C3120CC3400AAF13120E570513020BAECB
:100C2F00E513B557069000CCE004F0E51275F00817
:100C3F009000CB120D514024E4F0C2009000D1E09F
:100C4F0004F0E51275F0049000CC120D51400DE444
:0C0C5F009000D1F01216551212BCC20118
:010C6B002266
:0717780043A12053A2DF2270
:1015D800758E07758911758A18758CFCC28CD2A90D
:1015E800D28CE4F5C9F5C875CBFC75CA18C2CAD245
:0415F800ADD2CA2284
:03000B00021308D5
:10130800C0E0C0F0C083C082C0D075D000C000C0AB
:1013180001C002C003C004C005C006C007C2AF7543
:101328008A18758CFC121670121353121567D2AFF7
:10133800D007D006D005D004D003D002D001D00009
:0B134800D0D0D082D083D0F0D0E032B3
:03001B0002177F4A
:07177F00758B9C758DFF3294
:03002B000217A811
:0317A800C2CF327B
:10121E008D828C835391F375920C43878075985011
:10122E00E4F5C8758E03758920FCFDFE7B407A427D
:10123E00790FF81204A5C006C007AE83AF82AB07C4
:10124E00AA06E4F9F8D007D00612139EE47B10FA32
:10125E00F9F812139EEFF404F58DD28ED2ACD2AF04
:01126E00225D
:0A1739008F99E56160FCE4F5612280
:0614B6008B138A14891556
:1014BC00E4F55FC3E55F9407748094805017AB1319
:1014CC00AA14A915855F827583001203FBFF1217FE
:0714DC0039055F80DE7F018E
:0114E30022E6
:0813E2008F088D098A0A8B0BAC
:1013EA007E007F077D007B007A00790C1205D88584
:1013FA00080C85090DE50AF50EE50BF50FE50C2538
:10140A000D250E250FF51075110D75120A7B007A40
:06141A0000790C0214B67B
:030023000216ECD6
:1016EC00309905C299756101309805C298756001F1
:0116FC0032BB
:101277000130FF6037009400000000000102030402
:1012870005060708090A0B0C0D0E0F10111213148F
:1012970015161718191A1B1C1D1E1F20212223247F
:0E12A70025262728292A2B2C2D2E2F303132D8
:100F1200E4F509F50A7F01120760EC4D4E4F6005BA
:100F2200050A7509017F02120760EC4D4E4F6005FC
:100F3200050A7509027F03120760EC4D4E4F6005EA
:100F4200050A7509037F04120760EC4D4E4F6005D8
:100F5200050A7509047F05120760EC4D4E4F6005C6
:100F6200050A7509057F06120760EC4D4E4F6005B4
:100F7200050A7509067F07120760EC4D4E4F6005A2
:100F8200050A7509077F08120760EC4D4E4F600590
:100F9200050A7509087F09120760EC4D4E4F60057E
:100FA200050A7509097F0A120760EC4D4E4F60056C
:100FB200050A75090AD3E50A9401748094804003F6
:050FC2007509FFAF09F5
:010FC7002207
:1016DA00121158E4F52BFB7A007936FFFEFDFC0265
:0216EA001639AF
:020D84008F08D6
:100D86007E00EF701DAD3EFCED640C6005ED64AABF
:100D96007005E4F5358007ED4C6003E4F53EE4F5B7
:100DA6002222EF64014E7021E565701DE535600372
:100DB600020E567535010521E52130E006753E0C1B
:100DC600020026753EAA02001EE50864067007E5C5
:100DD60065700302153DAF087E00EF640B700EE5EB
:100DE60065700AE53E64096067753E0922EF641086
:100DF6004E700EE565700AE53E64016053753E016E
:100E060022E5086415700EE565700AE53E64026029
:100E16003F753E0222AF087E00EF641A700EE5654C
:100E2600700AE53E64036028753E0322EF641F4E98
:100E3600700EE565700AE53E64046014753E042292
:100E4600E5086431700AE52270067522011216FD66
:010E56002279
:1008C800900071E030E711547FF0120A1D8F348ECA
:1008D800338D328C3112179F7B007A0079361214CF
:1008E80086EC4D4E4F70037FFF227B007A007936ED
:1008F8007F0A7E007D007C00121639120F128F08C5
:10090800EFF470037FFF22E52B14603014606C1441
:1009180070030209CD24036003020A17E508700278
:10092800FF228508307B007A0079237F0A7E007DCC
:10093800007C00121639752B01020A1AE530650889
:100948006003020A177B007A007923121486EC4DA3
:100958004E4F7003020A1A7B007A0079237F107EBB
:10096800277D007C00121639752B02E53075F005DD
:10097800A42494F582E43400020A12E53065086084
:1009880012E4F52BE53075F005A42495F582E434DE
:100998000080777B007A007923121486EC4D4E4F45
:1009A80060707B007A0079237F0A7E007D007C00DE
:1009B800121639752B03E53075F005A42496F582D7
:1009C800E434008045E53065086012E4F52BE53035
:1009D80075F005A42498F582E43400802D7B007A14
:1009E800007923121486EC4D4E4F60267B007A0066
:1009F80079237F0A7E007D007C00121639E5307568
:100A0800F005A42497F582E43400F583E0FF22E49E
:040A1800F52B7FFF3C
:010A1C0022B7
:0C170D00EA494B60068B2D8A2E892F22A2
:10168A001208C88F2CE52E452F452D6009852F821B
:07169A00852E831205D62204
:100760008F0BEF6401701D7F08FEFDFCAB34AA33D4
:10077000A932A831C312050170057F080208C4E43C
:10078000FF0208C4E50B6402701D7F10FEFDFCAB88
:1007900034AA33A932A831C312050170057F1002B3
:1007A00008C4E4FF0208C4E50B6403701EFF7E105A
:1007B000FDFCAB34AA33A932A831C312050170067F
:1007C000FF7E10FDFC22E4FF0208C4E50B64047008
:1007D0001EFF7E02FDFCAB34AA33A932A831C3123E
:1007E00005017006FF7E02FDFC22E4FF0208C4E55D
:1007F0000B6405701EFF7E01FDFCAB34AA33A932E9
:10080000A831C31205017006FF7E01FDFC22E4FF42
:100810000208C4E50B6406701D7F20FEFDFCAB34AE
:10082000AA33A932A831C312050170057F2002083E
:10083000C4E4FF0208C4E50B6407701DFFFE7D08D9
:10084000FCAB34AA33A932A831C31205017006FFEC
:10085000FE7D08FC22E4FF806BE50B6408701DFF41
:10086000FE7D04FCAB34AA33A932A831C3120501C2
:100870007006FFFE7D04FC22E4FF8048E50B64095E
:10088000701DFF7E80FDFCAB34AA33A932A831C3B2
:100890001205017006FF7E80FDFC22E4FF8025E545
:1008A0000B640A701DFF7E40FDFCAB34AA33A932F5
:1008B000A831C31205017006FF7E40FDFC22E4FF53
:0808C0008002E4FFFEFDFC22B2
:07178600439A01539BFE2270
:04001E0075620F22D6
:040026007562642279
:101567000564E56470020563D39464E56394004001
:1015770005E4F563F564D3E5649562E5639400409B
:0715870003C28022D2802282
:0A174300439A06539BF975800022BB
:10153D000558E55830E00E5380F9438002755C0183
:10154D00E4F559800C5380F9438004E4F55C75593A
:09155D0001F55DF55EF55AF55B40
:011566002262
:10135300E55C6021055EE55E7002055DD394E0E522
:101363005D942E4010E4F55DF55EF55AF55B538010
:10137300F9F55CF559E5596021055BE55B700205FC
:101383005AD394E0E55A942E4010E4F55DF55EF5EA
:0B1393005AF55B5380F9F55CF5592218
:07178D0043A12053A2DF225B
:1016FD00E5657006756501D2A522E4F565C2A522E2
:0417940043CF10220D
:0417980043CF102209
:0612B500041C0000000013
:0A174D00E4F51FF51EF51DF51C2242
:10167000AF1FAE1EAD1DAC1CEF2401F51FE43EF5FF
:0A1680001EE43DF51DE43CF51C22BC
:09175700AF1FAE1EAD1DAC1C223B
:101639008F0C8E0B8D0A8C09121757120568AF0C87
:0C164900AE0BAD0AAC0990000402058253
:101486008B098A0A890B9000041205381205A6C337
:10149600E51F9BFBE51E9AFAE51D99F9E51C98F8F0
:1014A600C3120501E440047F018001FFFEFDFC221A
:10106600020003E493A3F8E493A34003F68001F29D
:1010760008DFF48029E493A3F85407240CC8C3338B
:10108600C4540F4420C8834004F456800146F6DF5A
:10109600E4800B010204081020408090126FE47E69
:1010A600019360BCA3FF543F30E509541FFEE4934F
:1010B600A360010ECF54C025E060A840B8E493A316
:1010C600FAE493A3F8E493A3C8C582C8CAC583CA41
:1010D600F0A3C8C582C8CAC583CADFE9DEE780BEF9
:0112BB000032
:1003FB00BB010CE58229F582E5833AF583E02250B7
:10040B0006E92582F8E622BBFE06E92582F8E22200
:0D041B00E58229F582E5833AF583E493221A
:10042800EF8DF0A4A8F0CF8CF0A428CE8DF0A42EE8
:02043800FE22A2
:10043A00BC000BBE0029EF8DF084FFADF022E4CCA6
:10044A00F875F008EF2FFFEE33FEEC33FCEE9DEC6F
:10045A00984005FCEE9DFE0FD5F0E9E4CEFD22EDB5
:10046A00F8F5F0EE8420D21CFEADF075F008EF2FFF
:10047A00FFED33FD4007985006D5F0F222C398FDF0
:05048A000FD5F0EA228D
:10048F00C5F0F8A3E028F0C5F0F8E58215827002F8
:06049F001583E038F02295
:1004A500E88FF0A4CC8BF0A42CFCE98EF0A42CFCF6
:1004B5008AF0EDA42CFCEA8EF0A4CDA8F08BF0A474
:1004C5002DCC3825F0FDE98FF0A42CCD35F0FCEBD3
:1004D5008EF0A4FEA9F0EB8FF0A4CFC5F02ECD3998
:0F04E500FEE43CFCEAA42DCE35F0FDE43CFC2205
:10139E00C2D5E830E70FB2D5E4C39BFBE49AFAE47A
:1013AE0099F9E498F8EC30E717B2D51213D4120677
:1013BE0040E4C39BFBE49AFAE499F9E498F88003BD
:1013CE0012064030D50DE4C39FFFE49EFEE49DFD62
:0413DE00E49CFC226D
:0D04F400CFF4CFCEF4CECDF4CDCCF4CC229D
:10050100EB9FF5F0EA9E42F0E99D42F0E89C45F050
:0105110022C7
:10051200E8600FECC313FCED13FDEE13FEEF13FFC7
:03052200D8F122EB
:10052500E8600FEFC333FFEE33FEED33FDEC33FC34
:03053500D8F122D8
:10053800BB010DE58229F582E5833AF5830206DEE3
:100548005007E92582F80206D2BBFE07E92582F8A2
:100558000206EAE58229F582E5833AF5830206F682
:10056800BB010789828A830207485005E9F8020718
:0A0578003CBBFE05E9F8020754221F
:10058200BB010DE58229F582E5833AF5830207482E
:100592005007E92582F802073CBBFE07E92582F8ED
:0405A20002075422D6
:1005A600BB010789828A830207135005E9F802070F
:1005B60006BBFE05E9F802071F89828A8302072C1B
:0C05C600A42582F582E5F03583F5832240
:0605D2008A838982E473B4
:1005D800EF4E6012EF60010EEDBB010B89828A833A
:1005E800F0A3DFFCDEFA2289F05007F709DFFCA947
:0C05F800F022BBFEFCF309DFFCA9F0229E
:1006040075F008758200EF2FFFEE33FECD33CDCCAD
:1006140033CCC58233C5829BED9AEC99E582984030
:100624000CF582EE9BFEED9AFDEC99FC0FD5F0D60D
:10063400E4CEFBE4CDFAE4CCF9A88222B800C1B937
:100644000059BA002DEC8BF084CFCECDFCE5F0CB75
:10065400F97818EF2FFFEE33FEED33FDEC33FCEBAE
:1006640033FB10D703994004EB99FB0FD8E5E4F969
:10067400FA227818EF2FFFEE33FEED33FDEC33FC56
:10068400C933C910D7059BE99A4007EC9BFCE99A4A
:10069400F90FD8E0E4C9FAE4CCFB2275F010EF2F8F
:1006A400FFEE33FEED33FDCC33CCC833C810D7078F
:1006B4009BEC9AE899400AED9BFDEC9AFCE899F8CA
:0E06C4000FD5F0DAE4CDFBE4CCFAE4C8F9225D
:0C06D200E6FC08E6FD08E6FE08E6FF2254
:0C06DE00E0FCA3E0FDA3E0FEA3E0FF228F
:0C06EA00E2FC08E2FD08E2FE08E2FF224C
:1006F600E493FC740193FD740293FE740393FF224A
:0D070600E6FB08E6F908E6FA08E6CBF82263
:0C071300E0F8A3E0F9A3E0FAA3E0FB2269
:0D071F00E2FB08E2F908E2FA08E2CBF8225A
:10072C00E493F8740193F9740293FA740393FB2223
:0C073C00ECF608EDF608EEF608EFF622E9
:0C074800ECF0A3EDF0A3EEF0A3EFF02224
:0C075400ECF208EDF208EEF208EFF222E1
:00000001FF
